{
  "_format": "hh-sol-artifact-1",
  "contractName": "UserManager",
  "sourceName": "contracts/UserManager.sol",
  "abi": [
    {
      "anonymous": false,
      "inputs": [
        {
          "indexed": false,
          "internalType": "address",
          "name": "sender",
          "type": "address"
        },
        {
          "indexed": false,
          "internalType": "bytes32",
          "name": "emailAddress",
          "type": "bytes32"
        },
        {
          "indexed": false,
          "internalType": "string",
          "name": "encryptedPassword",
          "type": "string"
        }
      ],
      "name": "LogNewUser",
      "type": "event"
    },
    {
      "anonymous": false,
      "inputs": [
        {
          "indexed": false,
          "internalType": "address",
          "name": "sender",
          "type": "address"
        },
        {
          "indexed": false,
          "internalType": "bytes32",
          "name": "emailAddress",
          "type": "bytes32"
        }
      ],
      "name": "LogRemUser",
      "type": "event"
    },
    {
      "anonymous": false,
      "inputs": [
        {
          "indexed": false,
          "internalType": "address",
          "name": "sender",
          "type": "address"
        },
        {
          "indexed": false,
          "internalType": "bytes32",
          "name": "emailAddress",
          "type": "bytes32"
        },
        {
          "indexed": false,
          "internalType": "string",
          "name": "encryptedPassword",
          "type": "string"
        }
      ],
      "name": "LogUpdateUser",
      "type": "event"
    },
    {
      "inputs": [],
      "name": "getUserCount",
      "outputs": [
        {
          "internalType": "uint256",
          "name": "count",
          "type": "uint256"
        }
      ],
      "stateMutability": "view",
      "type": "function"
    },
    {
      "inputs": [
        {
          "internalType": "bytes32",
          "name": "emailAddress",
          "type": "bytes32"
        }
      ],
      "name": "getUserPassword",
      "outputs": [
        {
          "internalType": "string",
          "name": "encryptedPassword",
          "type": "string"
        }
      ],
      "stateMutability": "view",
      "type": "function"
    },
    {
      "inputs": [
        {
          "internalType": "bytes32",
          "name": "emailAddress",
          "type": "bytes32"
        },
        {
          "internalType": "string",
          "name": "encryptedPassword",
          "type": "string"
        }
      ],
      "name": "newUser",
      "outputs": [],
      "stateMutability": "nonpayable",
      "type": "function"
    },
    {
      "inputs": [
        {
          "internalType": "bytes32",
          "name": "emailAddress",
          "type": "bytes32"
        }
      ],
      "name": "remUser",
      "outputs": [],
      "stateMutability": "nonpayable",
      "type": "function"
    },
    {
      "inputs": [
        {
          "internalType": "bytes32",
          "name": "emailAddress",
          "type": "bytes32"
        },
        {
          "internalType": "string",
          "name": "encryptedPassword",
          "type": "string"
        }
      ],
      "name": "updateUser",
      "outputs": [],
      "stateMutability": "nonpayable",
      "type": "function"
    }
  ],
  "bytecode": "0x608060405234801561001057600080fd5b506110ea806100206000396000f3fe608060405234801561001057600080fd5b50600436106100575760003560e01c80630fe4c9921461005c57806313c045bf1461008c578063567686cc146100a857806392511991146100c4578063b5cb15f7146100e0575b600080fd5b610076600480360381019061007191906106e0565b6100fe565b604051610083919061079d565b60405180910390f35b6100a660048036038101906100a191906108f4565b6101ff565b005b6100c260048036038101906100bd91906108f4565b61027c565b005b6100de60048036038101906100d991906106e0565b610338565b005b6100e86103ae565b6040516100f59190610969565b60405180910390f35b60606101148260006103bf90919063ffffffff16565b610153576040517f08c379a000000000000000000000000000000000000000000000000000000000815260040161014a906109f6565b60405180910390fd5b600060026000848152602001908152602001600020905080600001805461017990610a45565b80601f01602080910402602001604051908101604052809291908181526020018280546101a590610a45565b80156101f25780601f106101c7576101008083540402835291602001916101f2565b820191906000526020600020905b8154815290600101906020018083116101d557829003601f168201915b5050505050915050919050565b61021382600061041990919063ffffffff16565b60006002600084815260200190815260200160002090508181600001908161023b9190610c22565b507f7c42b9d832a2da52ad6c733728b08879740f363b2953764fac1a167320bc410033848460405161026f93929190610d44565b60405180910390a1505050565b6102908260006103bf90919063ffffffff16565b6102cf576040517f08c379a00000000000000000000000000000000000000000000000000000000081526004016102c690610df4565b60405180910390fd5b6000600260008481526020019081526020016000209050818160000190816102f79190610c22565b507f32b4d89b851f82aac93ae14c87ebf734805a1c4fa95f60887e1914dbd1b3cab033848460405161032b93929190610d44565b60405180910390a1505050565b61034c81600061050490919063ffffffff16565b60026000828152602001908152602001600020600080820160006103709190610639565b50507f46491ce5a052f723801f8cec71d8f0a11dbf8932364470f15b225dbf65ad74e333826040516103a3929190610e14565b60405180910390a150565b60006103ba6000610628565b905090565b6000808360010180549050036103d85760009050610413565b8183600101846000016000858152602001908152602001600020548154811061040457610403610e3d565b5b90600052602060002001541490505b92915050565b6000801b810361045e576040517f08c379a000000000000000000000000000000000000000000000000000000000815260040161045590610ede565b60405180910390fd5b61046882826103bf565b156104a8576040517f08c379a000000000000000000000000000000000000000000000000000000000815260040161049f90610f70565b60405180910390fd5b81600101819080600181540180825580915050600190039060005260206000200160009091909190915055600182600101805490506104e79190610fbf565b826000016000838152602001908152602001600020819055505050565b61050e82826103bf565b61054d576040517f08c379a000000000000000000000000000000000000000000000000000000000815260040161054490611065565b60405180910390fd5b600082600101600161055e85610628565b6105689190610fbf565b8154811061057957610578610e3d565b5b9060005260206000200154905060008360000160008481526020019081526020016000205490508084600001600084815260200190815260200160002081905550818460010182815481106105d1576105d0610e3d565b5b9060005260206000200181905550836000016000848152602001908152602001600020600090558360010180548061060c5761060b611085565b5b6001900381819060005260206000200160009055905550505050565b600081600101805490509050919050565b50805461064590610a45565b6000825580601f106106575750610676565b601f0160209004906000526020600020908101906106759190610679565b5b50565b5b8082111561069257600081600090555060010161067a565b5090565b6000604051905090565b600080fd5b600080fd5b6000819050919050565b6106bd816106aa565b81146106c857600080fd5b50565b6000813590506106da816106b4565b92915050565b6000602082840312156106f6576106f56106a0565b5b6000610704848285016106cb565b91505092915050565b600081519050919050565b600082825260208201905092915050565b60005b8381101561074757808201518184015260208101905061072c565b60008484015250505050565b6000601f19601f8301169050919050565b600061076f8261070d565b6107798185610718565b9350610789818560208601610729565b61079281610753565b840191505092915050565b600060208201905081810360008301526107b78184610764565b905092915050565b600080fd5b600080fd5b7f4e487b7100000000000000000000000000000000000000000000000000000000600052604160045260246000fd5b61080182610753565b810181811067ffffffffffffffff821117156108205761081f6107c9565b5b80604052505050565b6000610833610696565b905061083f82826107f8565b919050565b600067ffffffffffffffff82111561085f5761085e6107c9565b5b61086882610753565b9050602081019050919050565b82818337600083830152505050565b600061089761089284610844565b610829565b9050828152602081018484840111156108b3576108b26107c4565b5b6108be848285610875565b509392505050565b600082601f8301126108db576108da6107bf565b5b81356108eb848260208601610884565b91505092915050565b6000806040838503121561090b5761090a6106a0565b5b6000610919858286016106cb565b925050602083013567ffffffffffffffff81111561093a576109396106a5565b5b610946858286016108c6565b9150509250929050565b6000819050919050565b61096381610950565b82525050565b600060208201905061097e600083018461095a565b92915050565b7f43616e27742067657420612075736572207468617420646f65736e277420657860008201527f6973742e00000000000000000000000000000000000000000000000000000000602082015250565b60006109e0602483610718565b91506109eb82610984565b604082019050919050565b60006020820190508181036000830152610a0f816109d3565b9050919050565b7f4e487b7100000000000000000000000000000000000000000000000000000000600052602260045260246000fd5b60006002820490506001821680610a5d57607f821691505b602082108103610a7057610a6f610a16565b5b50919050565b60008190508160005260206000209050919050565b60006020601f8301049050919050565b600082821b905092915050565b600060088302610ad87fffffffffffffffffffffffffffffffffffffffffffffffffffffffffffffffff82610a9b565b610ae28683610a9b565b95508019841693508086168417925050509392505050565b6000819050919050565b6000610b1f610b1a610b1584610950565b610afa565b610950565b9050919050565b6000819050919050565b610b3983610b04565b610b4d610b4582610b26565b848454610aa8565b825550505050565b600090565b610b62610b55565b610b6d818484610b30565b505050565b5b81811015610b9157610b86600082610b5a565b600181019050610b73565b5050565b601f821115610bd657610ba781610a76565b610bb084610a8b565b81016020851015610bbf578190505b610bd3610bcb85610a8b565b830182610b72565b50505b505050565b600082821c905092915050565b6000610bf960001984600802610bdb565b1980831691505092915050565b6000610c128383610be8565b9150826002028217905092915050565b610c2b8261070d565b67ffffffffffffffff811115610c4457610c436107c9565b5b610c4e8254610a45565b610c59828285610b95565b600060209050601f831160018114610c8c5760008415610c7a578287015190505b610c848582610c06565b865550610cec565b601f198416610c9a86610a76565b60005b82811015610cc257848901518255600182019150602085019450602081019050610c9d565b86831015610cdf5784890151610cdb601f891682610be8565b8355505b6001600288020188555050505b505050505050565b600073ffffffffffffffffffffffffffffffffffffffff82169050919050565b6000610d1f82610cf4565b9050919050565b610d2f81610d14565b82525050565b610d3e816106aa565b82525050565b6000606082019050610d596000830186610d26565b610d666020830185610d35565b8181036040830152610d788184610764565b9050949350505050565b7f43616e27742075706461746520612075736572207468617420646f65736e277460008201527f2065786973742e00000000000000000000000000000000000000000000000000602082015250565b6000610dde602783610718565b9150610de982610d82565b604082019050919050565b60006020820190508181036000830152610e0d81610dd1565b9050919050565b6000604082019050610e296000830185610d26565b610e366020830184610d35565b9392505050565b7f4e487b7100000000000000000000000000000000000000000000000000000000600052603260045260246000fd5b7f556e6f7264657265644b65795365742831303029202d204b65792063616e6e6f60008201527f7420626520307830000000000000000000000000000000000000000000000000602082015250565b6000610ec8602883610718565b9150610ed382610e6c565b604082019050919050565b60006020820190508181036000830152610ef781610ebb565b9050919050565b7f556e6f7264657265644b65795365742831303129202d204b657920616c72656160008201527f64792065786973747320696e20746865207365742e0000000000000000000000602082015250565b6000610f5a603583610718565b9150610f6582610efe565b604082019050919050565b60006020820190508181036000830152610f8981610f4d565b9050919050565b7f4e487b7100000000000000000000000000000000000000000000000000000000600052601160045260246000fd5b6000610fca82610950565b9150610fd583610950565b9250828203905081811115610fed57610fec610f90565b5b92915050565b7f556e6f7264657265644b65795365742831303229202d204b657920646f65732060008201527f6e6f7420657869737420696e20746865207365742e0000000000000000000000602082015250565b600061104f603583610718565b915061105a82610ff3565b604082019050919050565b6000602082019050818103600083015261107e81611042565b9050919050565b7f4e487b7100000000000000000000000000000000000000000000000000000000600052603160045260246000fdfea26469706673582212208ddc22c84a31ba44649e38e20b74e3a8a8e3d53a75a746f73ae91180f6e1c8d564736f6c63430008110033",
  "linkReferences": {},
  "deployedLinkReferences": {}
}