{
  "_format": "hh-sol-artifact-1",
  "contractName": "WarningManager",
  "sourceName": "contracts/WarningManager.sol",
  "abi": [
    {
      "anonymous": false,
      "inputs": [
        {
          "indexed": false,
          "internalType": "address",
          "name": "sender",
          "type": "address"
        },
        {
          "indexed": false,
          "internalType": "bytes32",
          "name": "emailAddress",
          "type": "bytes32"
        }
      ],
      "name": "LogAddCount",
      "type": "event"
    },
    {
      "anonymous": false,
      "inputs": [
        {
          "indexed": false,
          "internalType": "address",
          "name": "sender",
          "type": "address"
        },
        {
          "indexed": false,
          "internalType": "bytes32",
          "name": "emailAddress",
          "type": "bytes32"
        }
      ],
      "name": "LogNewReport",
      "type": "event"
    },
    {
      "anonymous": false,
      "inputs": [
        {
          "indexed": false,
          "internalType": "address",
          "name": "sender",
          "type": "address"
        },
        {
          "indexed": false,
          "internalType": "bytes32",
          "name": "emailAddress",
          "type": "bytes32"
        }
      ],
      "name": "LogReduceCount",
      "type": "event"
    },
    {
      "inputs": [
        {
          "internalType": "bytes32",
          "name": "emailAddress",
          "type": "bytes32"
        }
      ],
      "name": "addCount",
      "outputs": [],
      "stateMutability": "nonpayable",
      "type": "function"
    },
    {
      "inputs": [
        {
          "internalType": "bytes32",
          "name": "emailAddress",
          "type": "bytes32"
        }
      ],
      "name": "getCount",
      "outputs": [
        {
          "internalType": "int256",
          "name": "reportCount",
          "type": "int256"
        }
      ],
      "stateMutability": "view",
      "type": "function"
    },
    {
      "inputs": [
        {
          "internalType": "bytes32",
          "name": "emailAddress",
          "type": "bytes32"
        }
      ],
      "name": "newReport",
      "outputs": [],
      "stateMutability": "nonpayable",
      "type": "function"
    },
    {
      "inputs": [
        {
          "internalType": "bytes32",
          "name": "emailAddress",
          "type": "bytes32"
        }
      ],
      "name": "reduceCount",
      "outputs": [],
      "stateMutability": "nonpayable",
      "type": "function"
    }
  ],
  "bytecode": "0x608060405234801561001057600080fd5b50610952806100206000396000f3fe608060405234801561001057600080fd5b506004361061004c5760003560e01c80638ba3de9414610051578063af52d4f51461006d578063c9d6fee914610089578063d38eaadc146100b9575b600080fd5b61006b600480360381019061006691906104c6565b6100d5565b005b610087600480360381019061008291906104c6565b610198565b005b6100a3600480360381019061009e91906104c6565b61025b565b6040516100b0919061050c565b60405180910390f35b6100d360048036038101906100ce91906104c6565b6102d4565b005b6100e981600061034690919063ffffffff16565b610128576040517f08c379a000000000000000000000000000000000000000000000000000000000815260040161011f906105aa565b60405180910390fd5b6000600260008381526020019081526020016000209050600181600001600082825461015491906105f9565b925050819055507fa970d7103097c42b8f1ba538bc55bae9ed183297386e9dcf8cba00292fc1f816338360405161018c92919061068c565b60405180910390a15050565b6101ac81600061034690919063ffffffff16565b6101eb576040517f08c379a00000000000000000000000000000000000000000000000000000000081526004016101e2906105aa565b60405180910390fd5b6000600260008381526020019081526020016000209050600181600001600082825461021791906106b5565b925050819055507f9ce788e0c0eaefee66ffa1581a64d43dfdd98bd16b28f142077cd8f918f7a737338360405161024f92919061068c565b60405180910390a15050565b600061027182600061034690919063ffffffff16565b6102b0576040517f08c379a00000000000000000000000000000000000000000000000000000000081526004016102a79061076b565b60405180910390fd5b60006002600084815260200190815260200160002090508060000154915050919050565b6102e88160006103a090919063ffffffff16565b6000600260008381526020019081526020016000209050600081600001819055507fb0c0bd8936b3822a73b2ab7d47683229ac2cf2203517c287fa7799925cdaf51f338360405161033a92919061068c565b60405180910390a15050565b60008083600101805490500361035f576000905061039a565b8183600101846000016000858152602001908152602001600020548154811061038b5761038a61078b565b5b90600052602060002001541490505b92915050565b6000801b81036103e5576040517f08c379a00000000000000000000000000000000000000000000000000000000081526004016103dc9061082c565b60405180910390fd5b6103ef8282610346565b1561042f576040517f08c379a0000000000000000000000000000000000000000000000000000000008152600401610426906108be565b60405180910390fd5b816001018190806001815401808255809150506001900390600052602060002001600090919091909150556001826001018054905061046e91906108e8565b826000016000838152602001908152602001600020819055505050565b600080fd5b6000819050919050565b6104a381610490565b81146104ae57600080fd5b50565b6000813590506104c08161049a565b92915050565b6000602082840312156104dc576104db61048b565b5b60006104ea848285016104b1565b91505092915050565b6000819050919050565b610506816104f3565b82525050565b600060208201905061052160008301846104fd565b92915050565b600082825260208201905092915050565b7f43616e27742075706461746520612075736572207468617420646f65736e277460008201527f2065786973742e00000000000000000000000000000000000000000000000000602082015250565b6000610594602783610527565b915061059f82610538565b604082019050919050565b600060208201905081810360008301526105c381610587565b9050919050565b7f4e487b7100000000000000000000000000000000000000000000000000000000600052601160045260246000fd5b6000610604826104f3565b915061060f836104f3565b9250828203905081811260008412168282136000851215161715610636576106356105ca565b5b92915050565b600073ffffffffffffffffffffffffffffffffffffffff82169050919050565b60006106678261063c565b9050919050565b6106778161065c565b82525050565b61068681610490565b82525050565b60006040820190506106a1600083018561066e565b6106ae602083018461067d565b9392505050565b60006106c0826104f3565b91506106cb836104f3565b9250828201905082811215600083121683821260008412151617156106f3576106f26105ca565b5b92915050565b7f43616e27742067657420612075736572207468617420646f65736e277420657860008201527f6973742e00000000000000000000000000000000000000000000000000000000602082015250565b6000610755602483610527565b9150610760826106f9565b604082019050919050565b6000602082019050818103600083015261078481610748565b9050919050565b7f4e487b7100000000000000000000000000000000000000000000000000000000600052603260045260246000fd5b7f556e6f7264657265644b65795365742831303029202d204b65792063616e6e6f60008201527f7420626520307830000000000000000000000000000000000000000000000000602082015250565b6000610816602883610527565b9150610821826107ba565b604082019050919050565b6000602082019050818103600083015261084581610809565b9050919050565b7f556e6f7264657265644b65795365742831303129202d204b657920616c72656160008201527f64792065786973747320696e20746865207365742e0000000000000000000000602082015250565b60006108a8603583610527565b91506108b38261084c565b604082019050919050565b600060208201905081810360008301526108d78161089b565b9050919050565b6000819050919050565b60006108f3826108de565b91506108fe836108de565b9250828203905081811115610916576109156105ca565b5b9291505056fea264697066735822122050e3e141919f6630fba8b828f3eb8df2c1d52bfb4bb3dcbde9c0658ad1efc27764736f6c63430008110033",
  "linkReferences": {},
  "deployedLinkReferences": {}
}