{
  "_format": "hh-sol-artifact-1",
  "contractName": "WarningManager",
  "sourceName": "contracts/WarningManager.sol",
  "abi": [
    {
      "anonymous": false,
      "inputs": [
        {
          "indexed": false,
          "internalType": "address",
          "name": "sender",
          "type": "address"
        },
        {
          "indexed": false,
          "internalType": "bytes32",
          "name": "emailAddress",
          "type": "bytes32"
        }
      ],
      "name": "LogAddCount",
      "type": "event"
    },
    {
      "anonymous": false,
      "inputs": [
        {
          "indexed": false,
          "internalType": "address",
          "name": "sender",
          "type": "address"
        },
        {
          "indexed": false,
          "internalType": "bytes32",
          "name": "emailAddress",
          "type": "bytes32"
        }
      ],
      "name": "LogRegisterUser",
      "type": "event"
    },
    {
      "inputs": [
        {
          "internalType": "uint256",
          "name": "",
          "type": "uint256"
        }
      ],
      "name": "CautionedPersons",
      "outputs": [
        {
          "internalType": "string",
          "name": "",
          "type": "string"
        }
      ],
      "stateMutability": "view",
      "type": "function"
    },
    {
      "inputs": [
        {
          "internalType": "bytes32",
          "name": "emailAddress",
          "type": "bytes32"
        }
      ],
      "name": "addCount",
      "outputs": [],
      "stateMutability": "nonpayable",
      "type": "function"
    },
    {
      "inputs": [
        {
          "internalType": "bytes32",
          "name": "_bytes32",
          "type": "bytes32"
        }
      ],
      "name": "bytes32ToString",
      "outputs": [
        {
          "internalType": "string",
          "name": "",
          "type": "string"
        }
      ],
      "stateMutability": "pure",
      "type": "function"
    },
    {
      "inputs": [],
      "name": "getCautionedPersons",
      "outputs": [
        {
          "internalType": "string[]",
          "name": "",
          "type": "string[]"
        }
      ],
      "stateMutability": "view",
      "type": "function"
    },
    {
      "inputs": [
        {
          "internalType": "bytes32",
          "name": "emailAddress",
          "type": "bytes32"
        }
      ],
      "name": "getCount",
      "outputs": [
        {
          "internalType": "int256",
          "name": "reportCount",
          "type": "int256"
        }
      ],
      "stateMutability": "view",
      "type": "function"
    },
    {
      "inputs": [
        {
          "internalType": "bytes32",
          "name": "emailAddress",
          "type": "bytes32"
        }
      ],
      "name": "registerUser",
      "outputs": [],
      "stateMutability": "nonpayable",
      "type": "function"
    }
  ],
  "bytecode": "0x608060405234801561001057600080fd5b50611198806100206000396000f3fe608060405234801561001057600080fd5b50600436106100615760003560e01c8062ddfc3614610066578063136fdc88146100845780632dc03259146100b45780639201de55146100d0578063af52d4f514610100578063c9d6fee91461011c575b600080fd5b61006e61014c565b60405161007b91906108fb565b60405180910390f35b61009e60048036038101906100999190610958565b610225565b6040516100ab91906109cf565b60405180910390f35b6100ce60048036038101906100c99190610a27565b6102d1565b005b6100ea60048036038101906100e59190610a27565b610343565b6040516100f791906109cf565b60405180910390f35b61011a60048036038101906101159190610a27565b6104de565b005b61013660048036038101906101319190610a27565b6105eb565b6040516101439190610a6d565b60405180910390f35b60606002805480602002602001604051908101604052809291908181526020016000905b8282101561021c57838290600052602060002001805461018f90610ab7565b80601f01602080910402602001604051908101604052809291908181526020018280546101bb90610ab7565b80156102085780601f106101dd57610100808354040283529160200191610208565b820191906000526020600020905b8154815290600101906020018083116101eb57829003601f168201915b505050505081526020019060010190610170565b50505050905090565b6002818154811061023557600080fd5b90600052602060002001600091509050805461025090610ab7565b80601f016020809104026020016040519081016040528092919081815260200182805461027c90610ab7565b80156102c95780601f1061029e576101008083540402835291602001916102c9565b820191906000526020600020905b8154815290600101906020018083116102ac57829003601f168201915b505050505081565b6102e581600061066490919063ffffffff16565b6000600360008381526020019081526020016000209050600081600001819055507fef34a648f121ec3b28a4c39b88c27b531d11995c99587beb8c08f324b91020523383604051610337929190610b38565b60405180910390a15050565b606060005b60208160ff1610801561039a5750600060f81b838260ff166020811061037157610370610b61565b5b1a60f81b7effffffffffffffffffffffffffffffffffffffffffffffffffffffffffffff191614155b156103b25780806103aa90610bcc565b915050610348565b60008160ff1667ffffffffffffffff8111156103d1576103d0610bf5565b5b6040519080825280601f01601f1916602001820160405280156104035781602001600182028036833780820191505090505b509050600091505b60208260ff1610801561045d5750600060f81b848360ff166020811061043457610433610b61565b5b1a60f81b7effffffffffffffffffffffffffffffffffffffffffffffffffffffffffffff191614155b156104d457838260ff166020811061047857610477610b61565b5b1a60f81b818360ff168151811061049257610491610b61565b5b60200101907effffffffffffffffffffffffffffffffffffffffffffffffffffffffffffff1916908160001a90535081806104cc90610bcc565b92505061040b565b8092505050919050565b6104f281600061074f90919063ffffffff16565b610531576040517f08c379a000000000000000000000000000000000000000000000000000000000815260040161052890610c96565b60405180910390fd5b6000600360008381526020019081526020016000209050600181600001600082825461055d9190610cb6565b925050819055507f9ce788e0c0eaefee66ffa1581a64d43dfdd98bd16b28f142077cd8f918f7a7373383604051610595929190610b38565b60405180910390a160038160000154036105e75760026105b483610343565b9080600181540180825580915050600190039060005260206000200160009091909190915090816105e59190610ea6565b505b5050565b600061060182600061074f90919063ffffffff16565b610640576040517f08c379a000000000000000000000000000000000000000000000000000000000815260040161063790610fea565b60405180910390fd5b60006003600084815260200190815260200160002090508060000154915050919050565b6000801b81036106a9576040517f08c379a00000000000000000000000000000000000000000000000000000000081526004016106a09061107c565b60405180910390fd5b6106b3828261074f565b156106f3576040517f08c379a00000000000000000000000000000000000000000000000000000000081526004016106ea9061110e565b60405180910390fd5b8160010181908060018154018082558091505060019003906000526020600020016000909190919091505560018260010180549050610732919061112e565b826000016000838152602001908152602001600020819055505050565b60008083600101805490500361076857600090506107a3565b8183600101846000016000858152602001908152602001600020548154811061079457610793610b61565b5b90600052602060002001541490505b92915050565b600081519050919050565b600082825260208201905092915050565b6000819050602082019050919050565b600081519050919050565b600082825260208201905092915050565b60005b8381101561080f5780820151818401526020810190506107f4565b60008484015250505050565b6000601f19601f8301169050919050565b6000610837826107d5565b61084181856107e0565b93506108518185602086016107f1565b61085a8161081b565b840191505092915050565b6000610871838361082c565b905092915050565b6000602082019050919050565b6000610891826107a9565b61089b81856107b4565b9350836020820285016108ad856107c5565b8060005b858110156108e957848403895281516108ca8582610865565b94506108d583610879565b925060208a019950506001810190506108b1565b50829750879550505050505092915050565b600060208201905081810360008301526109158184610886565b905092915050565b600080fd5b6000819050919050565b61093581610922565b811461094057600080fd5b50565b6000813590506109528161092c565b92915050565b60006020828403121561096e5761096d61091d565b5b600061097c84828501610943565b91505092915050565b600082825260208201905092915050565b60006109a1826107d5565b6109ab8185610985565b93506109bb8185602086016107f1565b6109c48161081b565b840191505092915050565b600060208201905081810360008301526109e98184610996565b905092915050565b6000819050919050565b610a04816109f1565b8114610a0f57600080fd5b50565b600081359050610a21816109fb565b92915050565b600060208284031215610a3d57610a3c61091d565b5b6000610a4b84828501610a12565b91505092915050565b6000819050919050565b610a6781610a54565b82525050565b6000602082019050610a826000830184610a5e565b92915050565b7f4e487b7100000000000000000000000000000000000000000000000000000000600052602260045260246000fd5b60006002820490506001821680610acf57607f821691505b602082108103610ae257610ae1610a88565b5b50919050565b600073ffffffffffffffffffffffffffffffffffffffff82169050919050565b6000610b1382610ae8565b9050919050565b610b2381610b08565b82525050565b610b32816109f1565b82525050565b6000604082019050610b4d6000830185610b1a565b610b5a6020830184610b29565b9392505050565b7f4e487b7100000000000000000000000000000000000000000000000000000000600052603260045260246000fd5b7f4e487b7100000000000000000000000000000000000000000000000000000000600052601160045260246000fd5b600060ff82169050919050565b6000610bd782610bbf565b915060ff8203610bea57610be9610b90565b5b600182019050919050565b7f4e487b7100000000000000000000000000000000000000000000000000000000600052604160045260246000fd5b7f43616e27742075706461746520612075736572207468617420646f65736e277460008201527f2065786973742e00000000000000000000000000000000000000000000000000602082015250565b6000610c80602783610985565b9150610c8b82610c24565b604082019050919050565b60006020820190508181036000830152610caf81610c73565b9050919050565b6000610cc182610a54565b9150610ccc83610a54565b925082820190508281121560008312168382126000841215161715610cf457610cf3610b90565b5b92915050565b60008190508160005260206000209050919050565b60006020601f8301049050919050565b600082821b905092915050565b600060088302610d5c7fffffffffffffffffffffffffffffffffffffffffffffffffffffffffffffffff82610d1f565b610d668683610d1f565b95508019841693508086168417925050509392505050565b6000819050919050565b6000610da3610d9e610d9984610922565b610d7e565b610922565b9050919050565b6000819050919050565b610dbd83610d88565b610dd1610dc982610daa565b848454610d2c565b825550505050565b600090565b610de6610dd9565b610df1818484610db4565b505050565b5b81811015610e1557610e0a600082610dde565b600181019050610df7565b5050565b601f821115610e5a57610e2b81610cfa565b610e3484610d0f565b81016020851015610e43578190505b610e57610e4f85610d0f565b830182610df6565b50505b505050565b600082821c905092915050565b6000610e7d60001984600802610e5f565b1980831691505092915050565b6000610e968383610e6c565b9150826002028217905092915050565b610eaf826107d5565b67ffffffffffffffff811115610ec857610ec7610bf5565b5b610ed28254610ab7565b610edd828285610e19565b600060209050601f831160018114610f105760008415610efe578287015190505b610f088582610e8a565b865550610f70565b601f198416610f1e86610cfa565b60005b82811015610f4657848901518255600182019150602085019450602081019050610f21565b86831015610f635784890151610f5f601f891682610e6c565b8355505b6001600288020188555050505b505050505050565b7f43616e27742067657420612075736572207468617420646f65736e277420657860008201527f6973742e00000000000000000000000000000000000000000000000000000000602082015250565b6000610fd4602483610985565b9150610fdf82610f78565b604082019050919050565b6000602082019050818103600083015261100381610fc7565b9050919050565b7f556e6f7264657265644b65795365742831303029202d204b65792063616e6e6f60008201527f7420626520307830000000000000000000000000000000000000000000000000602082015250565b6000611066602883610985565b91506110718261100a565b604082019050919050565b6000602082019050818103600083015261109581611059565b9050919050565b7f556e6f7264657265644b65795365742831303129202d204b657920616c72656160008201527f64792065786973747320696e20746865207365742e0000000000000000000000602082015250565b60006110f8603583610985565b91506111038261109c565b604082019050919050565b60006020820190508181036000830152611127816110eb565b9050919050565b600061113982610922565b915061114483610922565b925082820390508181111561115c5761115b610b90565b5b9291505056fea2646970667358221220a1b4bb618b66511916ecc40c3c1276a5580a9222a71fc701f953d818afec996f64736f6c63430008110033",
  "linkReferences": {},
  "deployedLinkReferences": {}
}