{"contracts/HitchensUnorderedKeySet.sol":{"HitchensUnorderedKeySet":{"abi":[{"anonymous":false,"inputs":[{"indexed":false,"internalType":"address","name":"sender","type":"address"},{"indexed":false,"internalType":"string","name":"action","type":"string"},{"indexed":false,"internalType":"bytes32","name":"key","type":"bytes32"}],"name":"LogUpdate","type":"event"},{"inputs":[],"name":"count","outputs":[{"internalType":"uint256","name":"","type":"uint256"}],"stateMutability":"view","type":"function"},{"inputs":[{"internalType":"bytes32","name":"key","type":"bytes32"}],"name":"exists","outputs":[{"internalType":"bool","name":"","type":"bool"}],"stateMutability":"view","type":"function"},{"inputs":[{"internalType":"bytes32","name":"key","type":"bytes32"}],"name":"insert","outputs":[],"stateMutability":"nonpayable","type":"function"},{"inputs":[{"internalType":"uint256","name":"index","type":"uint256"}],"name":"keyAtIndex","outputs":[{"internalType":"bytes32","name":"","type":"bytes32"}],"stateMutability":"view","type":"function"},{"inputs":[{"internalType":"bytes32","name":"key","type":"bytes32"}],"name":"remove","outputs":[],"stateMutability":"nonpayable","type":"function"}],"evm":{"bytecode":{"linkReferences":{},"object":"608060405234801561001057600080fd5b50610a06806100206000396000f3fe608060405234801561001057600080fd5b50600436106100575760003560e01c806306661abd1461005c5780632d287e431461007a57806338a699a4146100965780638e0db0d9146100c657806395bc2673146100f6575b600080fd5b610064610112565b60405161007191906104bb565b60405180910390f35b610094600480360381019061008f9190610511565b610123565b005b6100b060048036038101906100ab9190610511565b610173565b6040516100bd9190610559565b60405180910390f35b6100e060048036038101906100db91906105a0565b610190565b6040516100ed91906105dc565b60405180910390f35b610110600480360381019061010b9190610511565b6101ad565b005b600061011e60006101fd565b905090565b61013781600061020e90919063ffffffff16565b7fa4869f7c3fa4f122d4ca6781128192666d46e2b77aad294a632bd837170912343382604051610168929190610695565b60405180910390a150565b60006101898260006102f990919063ffffffff16565b9050919050565b60006101a682600061035390919063ffffffff16565b9050919050565b6101c181600061037e90919063ffffffff16565b7fa4869f7c3fa4f122d4ca6781128192666d46e2b77aad294a632bd8371709123433826040516101f292919061071d565b60405180910390a150565b600081600101805490509050919050565b6000801b8103610253576040517f08c379a000000000000000000000000000000000000000000000000000000000815260040161024a906107cb565b60405180910390fd5b61025d82826102f9565b1561029d576040517f08c379a00000000000000000000000000000000000000000000000000000000081526004016102949061085d565b60405180910390fd5b81600101819080600181540180825580915050600190039060005260206000200160009091909190915055600182600101805490506102dc91906108ac565b826000016000838152602001908152602001600020819055505050565b600080836001018054905003610312576000905061034d565b8183600101846000016000858152602001908152602001600020548154811061033e5761033d6108e0565b5b90600052602060002001541490505b92915050565b600082600101828154811061036b5761036a6108e0565b5b9060005260206000200154905092915050565b61038882826102f9565b6103c7576040517f08c379a00000000000000000000000000000000000000000000000000000000081526004016103be90610981565b60405180910390fd5b60008260010160016103d8856101fd565b6103e291906108ac565b815481106103f3576103f26108e0565b5b90600052602060002001549050600083600001600084815260200190815260200160002054905080846000016000848152602001908152602001600020819055508184600101828154811061044b5761044a6108e0565b5b90600052602060002001819055508360000160008481526020019081526020016000206000905583600101805480610486576104856109a1565b5b6001900381819060005260206000200160009055905550505050565b6000819050919050565b6104b5816104a2565b82525050565b60006020820190506104d060008301846104ac565b92915050565b600080fd5b6000819050919050565b6104ee816104db565b81146104f957600080fd5b50565b60008135905061050b816104e5565b92915050565b600060208284031215610527576105266104d6565b5b6000610535848285016104fc565b91505092915050565b60008115159050919050565b6105538161053e565b82525050565b600060208201905061056e600083018461054a565b92915050565b61057d816104a2565b811461058857600080fd5b50565b60008135905061059a81610574565b92915050565b6000602082840312156105b6576105b56104d6565b5b60006105c48482850161058b565b91505092915050565b6105d6816104db565b82525050565b60006020820190506105f160008301846105cd565b92915050565b600073ffffffffffffffffffffffffffffffffffffffff82169050919050565b6000610622826105f7565b9050919050565b61063281610617565b82525050565b600082825260208201905092915050565b7f696e736572740000000000000000000000000000000000000000000000000000600082015250565b600061067f600683610638565b915061068a82610649565b602082019050919050565b60006060820190506106aa6000830185610629565b81810360208301526106bb81610672565b90506106ca60408301846105cd565b9392505050565b7f72656d6f76650000000000000000000000000000000000000000000000000000600082015250565b6000610707600683610638565b9150610712826106d1565b602082019050919050565b60006060820190506107326000830185610629565b8181036020830152610743816106fa565b905061075260408301846105cd565b9392505050565b7f556e6f7264657265644b65795365742831303029202d204b65792063616e6e6f60008201527f7420626520307830000000000000000000000000000000000000000000000000602082015250565b60006107b5602883610638565b91506107c082610759565b604082019050919050565b600060208201905081810360008301526107e4816107a8565b9050919050565b7f556e6f7264657265644b65795365742831303129202d204b657920616c72656160008201527f64792065786973747320696e20746865207365742e0000000000000000000000602082015250565b6000610847603583610638565b9150610852826107eb565b604082019050919050565b600060208201905081810360008301526108768161083a565b9050919050565b7f4e487b7100000000000000000000000000000000000000000000000000000000600052601160045260246000fd5b60006108b7826104a2565b91506108c2836104a2565b92508282039050818111156108da576108d961087d565b5b92915050565b7f4e487b7100000000000000000000000000000000000000000000000000000000600052603260045260246000fd5b7f556e6f7264657265644b65795365742831303229202d204b657920646f65732060008201527f6e6f7420657869737420696e20746865207365742e0000000000000000000000602082015250565b600061096b603583610638565b91506109768261090f565b604082019050919050565b6000602082019050818103600083015261099a8161095e565b9050919050565b7f4e487b7100000000000000000000000000000000000000000000000000000000600052603160045260246000fdfea2646970667358221220447af1a8ebb842b9ef729cda5939a36f5aeca15d70a6b56f1dfb73bb451a549c64736f6c63430008110033","opcodes":"PUSH1 0x80 PUSH1 0x40 MSTORE CALLVALUE DUP1 ISZERO PUSH2 0x10 JUMPI PUSH1 0x0 DUP1 REVERT JUMPDEST POP PUSH2 0xA06 DUP1 PUSH2 0x20 PUSH1 0x0 CODECOPY PUSH1 0x0 RETURN INVALID PUSH1 0x80 PUSH1 0x40 MSTORE CALLVALUE DUP1 ISZERO PUSH2 0x10 JUMPI PUSH1 0x0 DUP1 REVERT JUMPDEST POP PUSH1 0x4 CALLDATASIZE LT PUSH2 0x57 JUMPI PUSH1 0x0 CALLDATALOAD PUSH1 0xE0 SHR DUP1 PUSH4 0x6661ABD EQ PUSH2 0x5C JUMPI DUP1 PUSH4 0x2D287E43 EQ PUSH2 0x7A JUMPI DUP1 PUSH4 0x38A699A4 EQ PUSH2 0x96 JUMPI DUP1 PUSH4 0x8E0DB0D9 EQ PUSH2 0xC6 JUMPI DUP1 PUSH4 0x95BC2673 EQ PUSH2 0xF6 JUMPI JUMPDEST PUSH1 0x0 DUP1 REVERT JUMPDEST PUSH2 0x64 PUSH2 0x112 JUMP JUMPDEST PUSH1 0x40 MLOAD PUSH2 0x71 SWAP2 SWAP1 PUSH2 0x4BB JUMP JUMPDEST PUSH1 0x40 MLOAD DUP1 SWAP2 SUB SWAP1 RETURN JUMPDEST PUSH2 0x94 PUSH1 0x4 DUP1 CALLDATASIZE SUB DUP2 ADD SWAP1 PUSH2 0x8F SWAP2 SWAP1 PUSH2 0x511 JUMP JUMPDEST PUSH2 0x123 JUMP JUMPDEST STOP JUMPDEST PUSH2 0xB0 PUSH1 0x4 DUP1 CALLDATASIZE SUB DUP2 ADD SWAP1 PUSH2 0xAB SWAP2 SWAP1 PUSH2 0x511 JUMP JUMPDEST PUSH2 0x173 JUMP JUMPDEST PUSH1 0x40 MLOAD PUSH2 0xBD SWAP2 SWAP1 PUSH2 0x559 JUMP JUMPDEST PUSH1 0x40 MLOAD DUP1 SWAP2 SUB SWAP1 RETURN JUMPDEST PUSH2 0xE0 PUSH1 0x4 DUP1 CALLDATASIZE SUB DUP2 ADD SWAP1 PUSH2 0xDB SWAP2 SWAP1 PUSH2 0x5A0 JUMP JUMPDEST PUSH2 0x190 JUMP JUMPDEST PUSH1 0x40 MLOAD PUSH2 0xED SWAP2 SWAP1 PUSH2 0x5DC JUMP JUMPDEST PUSH1 0x40 MLOAD DUP1 SWAP2 SUB SWAP1 RETURN JUMPDEST PUSH2 0x110 PUSH1 0x4 DUP1 CALLDATASIZE SUB DUP2 ADD SWAP1 PUSH2 0x10B SWAP2 SWAP1 PUSH2 0x511 JUMP JUMPDEST PUSH2 0x1AD JUMP JUMPDEST STOP JUMPDEST PUSH1 0x0 PUSH2 0x11E PUSH1 0x0 PUSH2 0x1FD JUMP JUMPDEST SWAP1 POP SWAP1 JUMP JUMPDEST PUSH2 0x137 DUP2 PUSH1 0x0 PUSH2 0x20E SWAP1 SWAP2 SWAP1 PUSH4 0xFFFFFFFF AND JUMP JUMPDEST PUSH32 0xA4869F7C3FA4F122D4CA6781128192666D46E2B77AAD294A632BD83717091234 CALLER DUP3 PUSH1 0x40 MLOAD PUSH2 0x168 SWAP3 SWAP2 SWAP1 PUSH2 0x695 JUMP JUMPDEST PUSH1 0x40 MLOAD DUP1 SWAP2 SUB SWAP1 LOG1 POP JUMP JUMPDEST PUSH1 0x0 PUSH2 0x189 DUP3 PUSH1 0x0 PUSH2 0x2F9 SWAP1 SWAP2 SWAP1 PUSH4 0xFFFFFFFF AND JUMP JUMPDEST SWAP1 POP SWAP2 SWAP1 POP JUMP JUMPDEST PUSH1 0x0 PUSH2 0x1A6 DUP3 PUSH1 0x0 PUSH2 0x353 SWAP1 SWAP2 SWAP1 PUSH4 0xFFFFFFFF AND JUMP JUMPDEST SWAP1 POP SWAP2 SWAP1 POP JUMP JUMPDEST PUSH2 0x1C1 DUP2 PUSH1 0x0 PUSH2 0x37E SWAP1 SWAP2 SWAP1 PUSH4 0xFFFFFFFF AND JUMP JUMPDEST PUSH32 0xA4869F7C3FA4F122D4CA6781128192666D46E2B77AAD294A632BD83717091234 CALLER DUP3 PUSH1 0x40 MLOAD PUSH2 0x1F2 SWAP3 SWAP2 SWAP1 PUSH2 0x71D JUMP JUMPDEST PUSH1 0x40 MLOAD DUP1 SWAP2 SUB SWAP1 LOG1 POP JUMP JUMPDEST PUSH1 0x0 DUP2 PUSH1 0x1 ADD DUP1 SLOAD SWAP1 POP SWAP1 POP SWAP2 SWAP1 POP JUMP JUMPDEST PUSH1 0x0 DUP1 SHL DUP2 SUB PUSH2 0x253 JUMPI PUSH1 0x40 MLOAD PUSH32 0x8C379A000000000000000000000000000000000000000000000000000000000 DUP2 MSTORE PUSH1 0x4 ADD PUSH2 0x24A SWAP1 PUSH2 0x7CB JUMP JUMPDEST PUSH1 0x40 MLOAD DUP1 SWAP2 SUB SWAP1 REVERT JUMPDEST PUSH2 0x25D DUP3 DUP3 PUSH2 0x2F9 JUMP JUMPDEST ISZERO PUSH2 0x29D JUMPI PUSH1 0x40 MLOAD PUSH32 0x8C379A000000000000000000000000000000000000000000000000000000000 DUP2 MSTORE PUSH1 0x4 ADD PUSH2 0x294 SWAP1 PUSH2 0x85D JUMP JUMPDEST PUSH1 0x40 MLOAD DUP1 SWAP2 SUB SWAP1 REVERT JUMPDEST DUP2 PUSH1 0x1 ADD DUP2 SWAP1 DUP1 PUSH1 0x1 DUP2 SLOAD ADD DUP1 DUP3 SSTORE DUP1 SWAP2 POP POP PUSH1 0x1 SWAP1 SUB SWAP1 PUSH1 0x0 MSTORE PUSH1 0x20 PUSH1 0x0 KECCAK256 ADD PUSH1 0x0 SWAP1 SWAP2 SWAP1 SWAP2 SWAP1 SWAP2 POP SSTORE PUSH1 0x1 DUP3 PUSH1 0x1 ADD DUP1 SLOAD SWAP1 POP PUSH2 0x2DC SWAP2 SWAP1 PUSH2 0x8AC JUMP JUMPDEST DUP3 PUSH1 0x0 ADD PUSH1 0x0 DUP4 DUP2 MSTORE PUSH1 0x20 ADD SWAP1 DUP2 MSTORE PUSH1 0x20 ADD PUSH1 0x0 KECCAK256 DUP2 SWAP1 SSTORE POP POP POP JUMP JUMPDEST PUSH1 0x0 DUP1 DUP4 PUSH1 0x1 ADD DUP1 SLOAD SWAP1 POP SUB PUSH2 0x312 JUMPI PUSH1 0x0 SWAP1 POP PUSH2 0x34D JUMP JUMPDEST DUP2 DUP4 PUSH1 0x1 ADD DUP5 PUSH1 0x0 ADD PUSH1 0x0 DUP6 DUP2 MSTORE PUSH1 0x20 ADD SWAP1 DUP2 MSTORE PUSH1 0x20 ADD PUSH1 0x0 KECCAK256 SLOAD DUP2 SLOAD DUP2 LT PUSH2 0x33E JUMPI PUSH2 0x33D PUSH2 0x8E0 JUMP JUMPDEST JUMPDEST SWAP1 PUSH1 0x0 MSTORE PUSH1 0x20 PUSH1 0x0 KECCAK256 ADD SLOAD EQ SWAP1 POP JUMPDEST SWAP3 SWAP2 POP POP JUMP JUMPDEST PUSH1 0x0 DUP3 PUSH1 0x1 ADD DUP3 DUP2 SLOAD DUP2 LT PUSH2 0x36B JUMPI PUSH2 0x36A PUSH2 0x8E0 JUMP JUMPDEST JUMPDEST SWAP1 PUSH1 0x0 MSTORE PUSH1 0x20 PUSH1 0x0 KECCAK256 ADD SLOAD SWAP1 POP SWAP3 SWAP2 POP POP JUMP JUMPDEST PUSH2 0x388 DUP3 DUP3 PUSH2 0x2F9 JUMP JUMPDEST PUSH2 0x3C7 JUMPI PUSH1 0x40 MLOAD PUSH32 0x8C379A000000000000000000000000000000000000000000000000000000000 DUP2 MSTORE PUSH1 0x4 ADD PUSH2 0x3BE SWAP1 PUSH2 0x981 JUMP JUMPDEST PUSH1 0x40 MLOAD DUP1 SWAP2 SUB SWAP1 REVERT JUMPDEST PUSH1 0x0 DUP3 PUSH1 0x1 ADD PUSH1 0x1 PUSH2 0x3D8 DUP6 PUSH2 0x1FD JUMP JUMPDEST PUSH2 0x3E2 SWAP2 SWAP1 PUSH2 0x8AC JUMP JUMPDEST DUP2 SLOAD DUP2 LT PUSH2 0x3F3 JUMPI PUSH2 0x3F2 PUSH2 0x8E0 JUMP JUMPDEST JUMPDEST SWAP1 PUSH1 0x0 MSTORE PUSH1 0x20 PUSH1 0x0 KECCAK256 ADD SLOAD SWAP1 POP PUSH1 0x0 DUP4 PUSH1 0x0 ADD PUSH1 0x0 DUP5 DUP2 MSTORE PUSH1 0x20 ADD SWAP1 DUP2 MSTORE PUSH1 0x20 ADD PUSH1 0x0 KECCAK256 SLOAD SWAP1 POP DUP1 DUP5 PUSH1 0x0 ADD PUSH1 0x0 DUP5 DUP2 MSTORE PUSH1 0x20 ADD SWAP1 DUP2 MSTORE PUSH1 0x20 ADD PUSH1 0x0 KECCAK256 DUP2 SWAP1 SSTORE POP DUP2 DUP5 PUSH1 0x1 ADD DUP3 DUP2 SLOAD DUP2 LT PUSH2 0x44B JUMPI PUSH2 0x44A PUSH2 0x8E0 JUMP JUMPDEST JUMPDEST SWAP1 PUSH1 0x0 MSTORE PUSH1 0x20 PUSH1 0x0 KECCAK256 ADD DUP2 SWAP1 SSTORE POP DUP4 PUSH1 0x0 ADD PUSH1 0x0 DUP5 DUP2 MSTORE PUSH1 0x20 ADD SWAP1 DUP2 MSTORE PUSH1 0x20 ADD PUSH1 0x0 KECCAK256 PUSH1 0x0 SWAP1 SSTORE DUP4 PUSH1 0x1 ADD DUP1 SLOAD DUP1 PUSH2 0x486 JUMPI PUSH2 0x485 PUSH2 0x9A1 JUMP JUMPDEST JUMPDEST PUSH1 0x1 SWAP1 SUB DUP2 DUP2 SWAP1 PUSH1 0x0 MSTORE PUSH1 0x20 PUSH1 0x0 KECCAK256 ADD PUSH1 0x0 SWAP1 SSTORE SWAP1 SSTORE POP POP POP POP JUMP JUMPDEST PUSH1 0x0 DUP2 SWAP1 POP SWAP2 SWAP1 POP JUMP JUMPDEST PUSH2 0x4B5 DUP2 PUSH2 0x4A2 JUMP JUMPDEST DUP3 MSTORE POP POP JUMP JUMPDEST PUSH1 0x0 PUSH1 0x20 DUP3 ADD SWAP1 POP PUSH2 0x4D0 PUSH1 0x0 DUP4 ADD DUP5 PUSH2 0x4AC JUMP JUMPDEST SWAP3 SWAP2 POP POP JUMP JUMPDEST PUSH1 0x0 DUP1 REVERT JUMPDEST PUSH1 0x0 DUP2 SWAP1 POP SWAP2 SWAP1 POP JUMP JUMPDEST PUSH2 0x4EE DUP2 PUSH2 0x4DB JUMP JUMPDEST DUP2 EQ PUSH2 0x4F9 JUMPI PUSH1 0x0 DUP1 REVERT JUMPDEST POP JUMP JUMPDEST PUSH1 0x0 DUP2 CALLDATALOAD SWAP1 POP PUSH2 0x50B DUP2 PUSH2 0x4E5 JUMP JUMPDEST SWAP3 SWAP2 POP POP JUMP JUMPDEST PUSH1 0x0 PUSH1 0x20 DUP3 DUP5 SUB SLT ISZERO PUSH2 0x527 JUMPI PUSH2 0x526 PUSH2 0x4D6 JUMP JUMPDEST JUMPDEST PUSH1 0x0 PUSH2 0x535 DUP5 DUP3 DUP6 ADD PUSH2 0x4FC JUMP JUMPDEST SWAP2 POP POP SWAP3 SWAP2 POP POP JUMP JUMPDEST PUSH1 0x0 DUP2 ISZERO ISZERO SWAP1 POP SWAP2 SWAP1 POP JUMP JUMPDEST PUSH2 0x553 DUP2 PUSH2 0x53E JUMP JUMPDEST DUP3 MSTORE POP POP JUMP JUMPDEST PUSH1 0x0 PUSH1 0x20 DUP3 ADD SWAP1 POP PUSH2 0x56E PUSH1 0x0 DUP4 ADD DUP5 PUSH2 0x54A JUMP JUMPDEST SWAP3 SWAP2 POP POP JUMP JUMPDEST PUSH2 0x57D DUP2 PUSH2 0x4A2 JUMP JUMPDEST DUP2 EQ PUSH2 0x588 JUMPI PUSH1 0x0 DUP1 REVERT JUMPDEST POP JUMP JUMPDEST PUSH1 0x0 DUP2 CALLDATALOAD SWAP1 POP PUSH2 0x59A DUP2 PUSH2 0x574 JUMP JUMPDEST SWAP3 SWAP2 POP POP JUMP JUMPDEST PUSH1 0x0 PUSH1 0x20 DUP3 DUP5 SUB SLT ISZERO PUSH2 0x5B6 JUMPI PUSH2 0x5B5 PUSH2 0x4D6 JUMP JUMPDEST JUMPDEST PUSH1 0x0 PUSH2 0x5C4 DUP5 DUP3 DUP6 ADD PUSH2 0x58B JUMP JUMPDEST SWAP2 POP POP SWAP3 SWAP2 POP POP JUMP JUMPDEST PUSH2 0x5D6 DUP2 PUSH2 0x4DB JUMP JUMPDEST DUP3 MSTORE POP POP JUMP JUMPDEST PUSH1 0x0 PUSH1 0x20 DUP3 ADD SWAP1 POP PUSH2 0x5F1 PUSH1 0x0 DUP4 ADD DUP5 PUSH2 0x5CD JUMP JUMPDEST SWAP3 SWAP2 POP POP JUMP JUMPDEST PUSH1 0x0 PUSH20 0xFFFFFFFFFFFFFFFFFFFFFFFFFFFFFFFFFFFFFFFF DUP3 AND SWAP1 POP SWAP2 SWAP1 POP JUMP JUMPDEST PUSH1 0x0 PUSH2 0x622 DUP3 PUSH2 0x5F7 JUMP JUMPDEST SWAP1 POP SWAP2 SWAP1 POP JUMP JUMPDEST PUSH2 0x632 DUP2 PUSH2 0x617 JUMP JUMPDEST DUP3 MSTORE POP POP JUMP JUMPDEST PUSH1 0x0 DUP3 DUP3 MSTORE PUSH1 0x20 DUP3 ADD SWAP1 POP SWAP3 SWAP2 POP POP JUMP JUMPDEST PUSH32 0x696E736572740000000000000000000000000000000000000000000000000000 PUSH1 0x0 DUP3 ADD MSTORE POP JUMP JUMPDEST PUSH1 0x0 PUSH2 0x67F PUSH1 0x6 DUP4 PUSH2 0x638 JUMP JUMPDEST SWAP2 POP PUSH2 0x68A DUP3 PUSH2 0x649 JUMP JUMPDEST PUSH1 0x20 DUP3 ADD SWAP1 POP SWAP2 SWAP1 POP JUMP JUMPDEST PUSH1 0x0 PUSH1 0x60 DUP3 ADD SWAP1 POP PUSH2 0x6AA PUSH1 0x0 DUP4 ADD DUP6 PUSH2 0x629 JUMP JUMPDEST DUP2 DUP2 SUB PUSH1 0x20 DUP4 ADD MSTORE PUSH2 0x6BB DUP2 PUSH2 0x672 JUMP JUMPDEST SWAP1 POP PUSH2 0x6CA PUSH1 0x40 DUP4 ADD DUP5 PUSH2 0x5CD JUMP JUMPDEST SWAP4 SWAP3 POP POP POP JUMP JUMPDEST PUSH32 0x72656D6F76650000000000000000000000000000000000000000000000000000 PUSH1 0x0 DUP3 ADD MSTORE POP JUMP JUMPDEST PUSH1 0x0 PUSH2 0x707 PUSH1 0x6 DUP4 PUSH2 0x638 JUMP JUMPDEST SWAP2 POP PUSH2 0x712 DUP3 PUSH2 0x6D1 JUMP JUMPDEST PUSH1 0x20 DUP3 ADD SWAP1 POP SWAP2 SWAP1 POP JUMP JUMPDEST PUSH1 0x0 PUSH1 0x60 DUP3 ADD SWAP1 POP PUSH2 0x732 PUSH1 0x0 DUP4 ADD DUP6 PUSH2 0x629 JUMP JUMPDEST DUP2 DUP2 SUB PUSH1 0x20 DUP4 ADD MSTORE PUSH2 0x743 DUP2 PUSH2 0x6FA JUMP JUMPDEST SWAP1 POP PUSH2 0x752 PUSH1 0x40 DUP4 ADD DUP5 PUSH2 0x5CD JUMP JUMPDEST SWAP4 SWAP3 POP POP POP JUMP JUMPDEST PUSH32 0x556E6F7264657265644B65795365742831303029202D204B65792063616E6E6F PUSH1 0x0 DUP3 ADD MSTORE PUSH32 0x7420626520307830000000000000000000000000000000000000000000000000 PUSH1 0x20 DUP3 ADD MSTORE POP JUMP JUMPDEST PUSH1 0x0 PUSH2 0x7B5 PUSH1 0x28 DUP4 PUSH2 0x638 JUMP JUMPDEST SWAP2 POP PUSH2 0x7C0 DUP3 PUSH2 0x759 JUMP JUMPDEST PUSH1 0x40 DUP3 ADD SWAP1 POP SWAP2 SWAP1 POP JUMP JUMPDEST PUSH1 0x0 PUSH1 0x20 DUP3 ADD SWAP1 POP DUP2 DUP2 SUB PUSH1 0x0 DUP4 ADD MSTORE PUSH2 0x7E4 DUP2 PUSH2 0x7A8 JUMP JUMPDEST SWAP1 POP SWAP2 SWAP1 POP JUMP JUMPDEST PUSH32 0x556E6F7264657265644B65795365742831303129202D204B657920616C726561 PUSH1 0x0 DUP3 ADD MSTORE PUSH32 0x64792065786973747320696E20746865207365742E0000000000000000000000 PUSH1 0x20 DUP3 ADD MSTORE POP JUMP JUMPDEST PUSH1 0x0 PUSH2 0x847 PUSH1 0x35 DUP4 PUSH2 0x638 JUMP JUMPDEST SWAP2 POP PUSH2 0x852 DUP3 PUSH2 0x7EB JUMP JUMPDEST PUSH1 0x40 DUP3 ADD SWAP1 POP SWAP2 SWAP1 POP JUMP JUMPDEST PUSH1 0x0 PUSH1 0x20 DUP3 ADD SWAP1 POP DUP2 DUP2 SUB PUSH1 0x0 DUP4 ADD MSTORE PUSH2 0x876 DUP2 PUSH2 0x83A JUMP JUMPDEST SWAP1 POP SWAP2 SWAP1 POP JUMP JUMPDEST PUSH32 0x4E487B7100000000000000000000000000000000000000000000000000000000 PUSH1 0x0 MSTORE PUSH1 0x11 PUSH1 0x4 MSTORE PUSH1 0x24 PUSH1 0x0 REVERT JUMPDEST PUSH1 0x0 PUSH2 0x8B7 DUP3 PUSH2 0x4A2 JUMP JUMPDEST SWAP2 POP PUSH2 0x8C2 DUP4 PUSH2 0x4A2 JUMP JUMPDEST SWAP3 POP DUP3 DUP3 SUB SWAP1 POP DUP2 DUP2 GT ISZERO PUSH2 0x8DA JUMPI PUSH2 0x8D9 PUSH2 0x87D JUMP JUMPDEST JUMPDEST SWAP3 SWAP2 POP POP JUMP JUMPDEST PUSH32 0x4E487B7100000000000000000000000000000000000000000000000000000000 PUSH1 0x0 MSTORE PUSH1 0x32 PUSH1 0x4 MSTORE PUSH1 0x24 PUSH1 0x0 REVERT JUMPDEST PUSH32 0x556E6F7264657265644B65795365742831303229202D204B657920646F657320 PUSH1 0x0 DUP3 ADD MSTORE PUSH32 0x6E6F7420657869737420696E20746865207365742E0000000000000000000000 PUSH1 0x20 DUP3 ADD MSTORE POP JUMP JUMPDEST PUSH1 0x0 PUSH2 0x96B PUSH1 0x35 DUP4 PUSH2 0x638 JUMP JUMPDEST SWAP2 POP PUSH2 0x976 DUP3 PUSH2 0x90F JUMP JUMPDEST PUSH1 0x40 DUP3 ADD SWAP1 POP SWAP2 SWAP1 POP JUMP JUMPDEST PUSH1 0x0 PUSH1 0x20 DUP3 ADD SWAP1 POP DUP2 DUP2 SUB PUSH1 0x0 DUP4 ADD MSTORE PUSH2 0x99A DUP2 PUSH2 0x95E JUMP JUMPDEST SWAP1 POP SWAP2 SWAP1 POP JUMP JUMPDEST PUSH32 0x4E487B7100000000000000000000000000000000000000000000000000000000 PUSH1 0x0 MSTORE PUSH1 0x31 PUSH1 0x4 MSTORE PUSH1 0x24 PUSH1 0x0 REVERT INVALID LOG2 PUSH5 0x6970667358 0x22 SLT KECCAK256 DIFFICULTY PUSH27 0xF1A8EBB842B9EF729CDA5939A36F5AECA15D70A6B56F1DFB73BB45 BYTE SLOAD SWAP13 PUSH5 0x736F6C6343 STOP ADDMOD GT STOP CALLER "},"methodIdentifiers":{"count()":"06661abd","exists(bytes32)":"38a699a4","insert(bytes32)":"2d287e43","keyAtIndex(uint256)":"8e0db0d9","remove(bytes32)":"95bc2673"}}}}}