{"contracts/WarningManager.sol":{"WarningManager":{"abi":[{"anonymous":false,"inputs":[{"indexed":false,"internalType":"address","name":"sender","type":"address"},{"indexed":false,"internalType":"bytes32","name":"emailAddress","type":"bytes32"}],"name":"LogAddCount","type":"event"},{"anonymous":false,"inputs":[{"indexed":false,"internalType":"address","name":"sender","type":"address"},{"indexed":false,"internalType":"bytes32","name":"emailAddress","type":"bytes32"}],"name":"LogRegisterUser","type":"event"},{"inputs":[{"internalType":"uint256","name":"","type":"uint256"}],"name":"CautionedPersons","outputs":[{"internalType":"string","name":"","type":"string"}],"stateMutability":"view","type":"function"},{"inputs":[{"internalType":"bytes32","name":"emailAddress","type":"bytes32"}],"name":"addCount","outputs":[],"stateMutability":"nonpayable","type":"function"},{"inputs":[{"internalType":"bytes32","name":"_bytes32","type":"bytes32"}],"name":"bytes32ToString","outputs":[{"internalType":"string","name":"","type":"string"}],"stateMutability":"pure","type":"function"},{"inputs":[],"name":"getCautionedPersons","outputs":[{"internalType":"string[]","name":"","type":"string[]"}],"stateMutability":"view","type":"function"},{"inputs":[{"internalType":"bytes32","name":"emailAddress","type":"bytes32"}],"name":"getCount","outputs":[{"internalType":"int256","name":"reportCount","type":"int256"}],"stateMutability":"view","type":"function"},{"inputs":[{"internalType":"bytes32","name":"emailAddress","type":"bytes32"}],"name":"registerUser","outputs":[],"stateMutability":"nonpayable","type":"function"}],"evm":{"bytecode":{"linkReferences":{},"object":"608060405234801561001057600080fd5b50611198806100206000396000f3fe608060405234801561001057600080fd5b50600436106100615760003560e01c8062ddfc3614610066578063136fdc88146100845780632dc03259146100b45780639201de55146100d0578063af52d4f514610100578063c9d6fee91461011c575b600080fd5b61006e61014c565b60405161007b91906108fb565b60405180910390f35b61009e60048036038101906100999190610958565b610225565b6040516100ab91906109cf565b60405180910390f35b6100ce60048036038101906100c99190610a27565b6102d1565b005b6100ea60048036038101906100e59190610a27565b610343565b6040516100f791906109cf565b60405180910390f35b61011a60048036038101906101159190610a27565b6104de565b005b61013660048036038101906101319190610a27565b6105eb565b6040516101439190610a6d565b60405180910390f35b60606002805480602002602001604051908101604052809291908181526020016000905b8282101561021c57838290600052602060002001805461018f90610ab7565b80601f01602080910402602001604051908101604052809291908181526020018280546101bb90610ab7565b80156102085780601f106101dd57610100808354040283529160200191610208565b820191906000526020600020905b8154815290600101906020018083116101eb57829003601f168201915b505050505081526020019060010190610170565b50505050905090565b6002818154811061023557600080fd5b90600052602060002001600091509050805461025090610ab7565b80601f016020809104026020016040519081016040528092919081815260200182805461027c90610ab7565b80156102c95780601f1061029e576101008083540402835291602001916102c9565b820191906000526020600020905b8154815290600101906020018083116102ac57829003601f168201915b505050505081565b6102e581600061066490919063ffffffff16565b6000600360008381526020019081526020016000209050600081600001819055507fef34a648f121ec3b28a4c39b88c27b531d11995c99587beb8c08f324b91020523383604051610337929190610b38565b60405180910390a15050565b606060005b60208160ff1610801561039a5750600060f81b838260ff166020811061037157610370610b61565b5b1a60f81b7effffffffffffffffffffffffffffffffffffffffffffffffffffffffffffff191614155b156103b25780806103aa90610bcc565b915050610348565b60008160ff1667ffffffffffffffff8111156103d1576103d0610bf5565b5b6040519080825280601f01601f1916602001820160405280156104035781602001600182028036833780820191505090505b509050600091505b60208260ff1610801561045d5750600060f81b848360ff166020811061043457610433610b61565b5b1a60f81b7effffffffffffffffffffffffffffffffffffffffffffffffffffffffffffff191614155b156104d457838260ff166020811061047857610477610b61565b5b1a60f81b818360ff168151811061049257610491610b61565b5b60200101907effffffffffffffffffffffffffffffffffffffffffffffffffffffffffffff1916908160001a90535081806104cc90610bcc565b92505061040b565b8092505050919050565b6104f281600061074f90919063ffffffff16565b610531576040517f08c379a000000000000000000000000000000000000000000000000000000000815260040161052890610c96565b60405180910390fd5b6000600360008381526020019081526020016000209050600181600001600082825461055d9190610cb6565b925050819055507f9ce788e0c0eaefee66ffa1581a64d43dfdd98bd16b28f142077cd8f918f7a7373383604051610595929190610b38565b60405180910390a160038160000154036105e75760026105b483610343565b9080600181540180825580915050600190039060005260206000200160009091909190915090816105e59190610ea6565b505b5050565b600061060182600061074f90919063ffffffff16565b610640576040517f08c379a000000000000000000000000000000000000000000000000000000000815260040161063790610fea565b60405180910390fd5b60006003600084815260200190815260200160002090508060000154915050919050565b6000801b81036106a9576040517f08c379a00000000000000000000000000000000000000000000000000000000081526004016106a09061107c565b60405180910390fd5b6106b3828261074f565b156106f3576040517f08c379a00000000000000000000000000000000000000000000000000000000081526004016106ea9061110e565b60405180910390fd5b8160010181908060018154018082558091505060019003906000526020600020016000909190919091505560018260010180549050610732919061112e565b826000016000838152602001908152602001600020819055505050565b60008083600101805490500361076857600090506107a3565b8183600101846000016000858152602001908152602001600020548154811061079457610793610b61565b5b90600052602060002001541490505b92915050565b600081519050919050565b600082825260208201905092915050565b6000819050602082019050919050565b600081519050919050565b600082825260208201905092915050565b60005b8381101561080f5780820151818401526020810190506107f4565b60008484015250505050565b6000601f19601f8301169050919050565b6000610837826107d5565b61084181856107e0565b93506108518185602086016107f1565b61085a8161081b565b840191505092915050565b6000610871838361082c565b905092915050565b6000602082019050919050565b6000610891826107a9565b61089b81856107b4565b9350836020820285016108ad856107c5565b8060005b858110156108e957848403895281516108ca8582610865565b94506108d583610879565b925060208a019950506001810190506108b1565b50829750879550505050505092915050565b600060208201905081810360008301526109158184610886565b905092915050565b600080fd5b6000819050919050565b61093581610922565b811461094057600080fd5b50565b6000813590506109528161092c565b92915050565b60006020828403121561096e5761096d61091d565b5b600061097c84828501610943565b91505092915050565b600082825260208201905092915050565b60006109a1826107d5565b6109ab8185610985565b93506109bb8185602086016107f1565b6109c48161081b565b840191505092915050565b600060208201905081810360008301526109e98184610996565b905092915050565b6000819050919050565b610a04816109f1565b8114610a0f57600080fd5b50565b600081359050610a21816109fb565b92915050565b600060208284031215610a3d57610a3c61091d565b5b6000610a4b84828501610a12565b91505092915050565b6000819050919050565b610a6781610a54565b82525050565b6000602082019050610a826000830184610a5e565b92915050565b7f4e487b7100000000000000000000000000000000000000000000000000000000600052602260045260246000fd5b60006002820490506001821680610acf57607f821691505b602082108103610ae257610ae1610a88565b5b50919050565b600073ffffffffffffffffffffffffffffffffffffffff82169050919050565b6000610b1382610ae8565b9050919050565b610b2381610b08565b82525050565b610b32816109f1565b82525050565b6000604082019050610b4d6000830185610b1a565b610b5a6020830184610b29565b9392505050565b7f4e487b7100000000000000000000000000000000000000000000000000000000600052603260045260246000fd5b7f4e487b7100000000000000000000000000000000000000000000000000000000600052601160045260246000fd5b600060ff82169050919050565b6000610bd782610bbf565b915060ff8203610bea57610be9610b90565b5b600182019050919050565b7f4e487b7100000000000000000000000000000000000000000000000000000000600052604160045260246000fd5b7f43616e27742075706461746520612075736572207468617420646f65736e277460008201527f2065786973742e00000000000000000000000000000000000000000000000000602082015250565b6000610c80602783610985565b9150610c8b82610c24565b604082019050919050565b60006020820190508181036000830152610caf81610c73565b9050919050565b6000610cc182610a54565b9150610ccc83610a54565b925082820190508281121560008312168382126000841215161715610cf457610cf3610b90565b5b92915050565b60008190508160005260206000209050919050565b60006020601f8301049050919050565b600082821b905092915050565b600060088302610d5c7fffffffffffffffffffffffffffffffffffffffffffffffffffffffffffffffff82610d1f565b610d668683610d1f565b95508019841693508086168417925050509392505050565b6000819050919050565b6000610da3610d9e610d9984610922565b610d7e565b610922565b9050919050565b6000819050919050565b610dbd83610d88565b610dd1610dc982610daa565b848454610d2c565b825550505050565b600090565b610de6610dd9565b610df1818484610db4565b505050565b5b81811015610e1557610e0a600082610dde565b600181019050610df7565b5050565b601f821115610e5a57610e2b81610cfa565b610e3484610d0f565b81016020851015610e43578190505b610e57610e4f85610d0f565b830182610df6565b50505b505050565b600082821c905092915050565b6000610e7d60001984600802610e5f565b1980831691505092915050565b6000610e968383610e6c565b9150826002028217905092915050565b610eaf826107d5565b67ffffffffffffffff811115610ec857610ec7610bf5565b5b610ed28254610ab7565b610edd828285610e19565b600060209050601f831160018114610f105760008415610efe578287015190505b610f088582610e8a565b865550610f70565b601f198416610f1e86610cfa565b60005b82811015610f4657848901518255600182019150602085019450602081019050610f21565b86831015610f635784890151610f5f601f891682610e6c565b8355505b6001600288020188555050505b505050505050565b7f43616e27742067657420612075736572207468617420646f65736e277420657860008201527f6973742e00000000000000000000000000000000000000000000000000000000602082015250565b6000610fd4602483610985565b9150610fdf82610f78565b604082019050919050565b6000602082019050818103600083015261100381610fc7565b9050919050565b7f556e6f7264657265644b65795365742831303029202d204b65792063616e6e6f60008201527f7420626520307830000000000000000000000000000000000000000000000000602082015250565b6000611066602883610985565b91506110718261100a565b604082019050919050565b6000602082019050818103600083015261109581611059565b9050919050565b7f556e6f7264657265644b65795365742831303129202d204b657920616c72656160008201527f64792065786973747320696e20746865207365742e0000000000000000000000602082015250565b60006110f8603583610985565b91506111038261109c565b604082019050919050565b60006020820190508181036000830152611127816110eb565b9050919050565b600061113982610922565b915061114483610922565b925082820390508181111561115c5761115b610b90565b5b9291505056fea264697066735822122068706fade86f8fee309efca83a7ed9934fe9d661bdd981fbb99746f1e8b67ed164736f6c63430008110033","opcodes":"PUSH1 0x80 PUSH1 0x40 MSTORE CALLVALUE DUP1 ISZERO PUSH2 0x10 JUMPI PUSH1 0x0 DUP1 REVERT JUMPDEST POP PUSH2 0x1198 DUP1 PUSH2 0x20 PUSH1 0x0 CODECOPY PUSH1 0x0 RETURN INVALID PUSH1 0x80 PUSH1 0x40 MSTORE CALLVALUE DUP1 ISZERO PUSH2 0x10 JUMPI PUSH1 0x0 DUP1 REVERT JUMPDEST POP PUSH1 0x4 CALLDATASIZE LT PUSH2 0x61 JUMPI PUSH1 0x0 CALLDATALOAD PUSH1 0xE0 SHR DUP1 PUSH3 0xDDFC36 EQ PUSH2 0x66 JUMPI DUP1 PUSH4 0x136FDC88 EQ PUSH2 0x84 JUMPI DUP1 PUSH4 0x2DC03259 EQ PUSH2 0xB4 JUMPI DUP1 PUSH4 0x9201DE55 EQ PUSH2 0xD0 JUMPI DUP1 PUSH4 0xAF52D4F5 EQ PUSH2 0x100 JUMPI DUP1 PUSH4 0xC9D6FEE9 EQ PUSH2 0x11C JUMPI JUMPDEST PUSH1 0x0 DUP1 REVERT JUMPDEST PUSH2 0x6E PUSH2 0x14C JUMP JUMPDEST PUSH1 0x40 MLOAD PUSH2 0x7B SWAP2 SWAP1 PUSH2 0x8FB JUMP JUMPDEST PUSH1 0x40 MLOAD DUP1 SWAP2 SUB SWAP1 RETURN JUMPDEST PUSH2 0x9E PUSH1 0x4 DUP1 CALLDATASIZE SUB DUP2 ADD SWAP1 PUSH2 0x99 SWAP2 SWAP1 PUSH2 0x958 JUMP JUMPDEST PUSH2 0x225 JUMP JUMPDEST PUSH1 0x40 MLOAD PUSH2 0xAB SWAP2 SWAP1 PUSH2 0x9CF JUMP JUMPDEST PUSH1 0x40 MLOAD DUP1 SWAP2 SUB SWAP1 RETURN JUMPDEST PUSH2 0xCE PUSH1 0x4 DUP1 CALLDATASIZE SUB DUP2 ADD SWAP1 PUSH2 0xC9 SWAP2 SWAP1 PUSH2 0xA27 JUMP JUMPDEST PUSH2 0x2D1 JUMP JUMPDEST STOP JUMPDEST PUSH2 0xEA PUSH1 0x4 DUP1 CALLDATASIZE SUB DUP2 ADD SWAP1 PUSH2 0xE5 SWAP2 SWAP1 PUSH2 0xA27 JUMP JUMPDEST PUSH2 0x343 JUMP JUMPDEST PUSH1 0x40 MLOAD PUSH2 0xF7 SWAP2 SWAP1 PUSH2 0x9CF JUMP JUMPDEST PUSH1 0x40 MLOAD DUP1 SWAP2 SUB SWAP1 RETURN JUMPDEST PUSH2 0x11A PUSH1 0x4 DUP1 CALLDATASIZE SUB DUP2 ADD SWAP1 PUSH2 0x115 SWAP2 SWAP1 PUSH2 0xA27 JUMP JUMPDEST PUSH2 0x4DE JUMP JUMPDEST STOP JUMPDEST PUSH2 0x136 PUSH1 0x4 DUP1 CALLDATASIZE SUB DUP2 ADD SWAP1 PUSH2 0x131 SWAP2 SWAP1 PUSH2 0xA27 JUMP JUMPDEST PUSH2 0x5EB JUMP JUMPDEST PUSH1 0x40 MLOAD PUSH2 0x143 SWAP2 SWAP1 PUSH2 0xA6D JUMP JUMPDEST PUSH1 0x40 MLOAD DUP1 SWAP2 SUB SWAP1 RETURN JUMPDEST PUSH1 0x60 PUSH1 0x2 DUP1 SLOAD DUP1 PUSH1 0x20 MUL PUSH1 0x20 ADD PUSH1 0x40 MLOAD SWAP1 DUP2 ADD PUSH1 0x40 MSTORE DUP1 SWAP3 SWAP2 SWAP1 DUP2 DUP2 MSTORE PUSH1 0x20 ADD PUSH1 0x0 SWAP1 JUMPDEST DUP3 DUP3 LT ISZERO PUSH2 0x21C JUMPI DUP4 DUP3 SWAP1 PUSH1 0x0 MSTORE PUSH1 0x20 PUSH1 0x0 KECCAK256 ADD DUP1 SLOAD PUSH2 0x18F SWAP1 PUSH2 0xAB7 JUMP JUMPDEST DUP1 PUSH1 0x1F ADD PUSH1 0x20 DUP1 SWAP2 DIV MUL PUSH1 0x20 ADD PUSH1 0x40 MLOAD SWAP1 DUP2 ADD PUSH1 0x40 MSTORE DUP1 SWAP3 SWAP2 SWAP1 DUP2 DUP2 MSTORE PUSH1 0x20 ADD DUP3 DUP1 SLOAD PUSH2 0x1BB SWAP1 PUSH2 0xAB7 JUMP JUMPDEST DUP1 ISZERO PUSH2 0x208 JUMPI DUP1 PUSH1 0x1F LT PUSH2 0x1DD JUMPI PUSH2 0x100 DUP1 DUP4 SLOAD DIV MUL DUP4 MSTORE SWAP2 PUSH1 0x20 ADD SWAP2 PUSH2 0x208 JUMP JUMPDEST DUP3 ADD SWAP2 SWAP1 PUSH1 0x0 MSTORE PUSH1 0x20 PUSH1 0x0 KECCAK256 SWAP1 JUMPDEST DUP2 SLOAD DUP2 MSTORE SWAP1 PUSH1 0x1 ADD SWAP1 PUSH1 0x20 ADD DUP1 DUP4 GT PUSH2 0x1EB JUMPI DUP3 SWAP1 SUB PUSH1 0x1F AND DUP3 ADD SWAP2 JUMPDEST POP POP POP POP POP DUP2 MSTORE PUSH1 0x20 ADD SWAP1 PUSH1 0x1 ADD SWAP1 PUSH2 0x170 JUMP JUMPDEST POP POP POP POP SWAP1 POP SWAP1 JUMP JUMPDEST PUSH1 0x2 DUP2 DUP2 SLOAD DUP2 LT PUSH2 0x235 JUMPI PUSH1 0x0 DUP1 REVERT JUMPDEST SWAP1 PUSH1 0x0 MSTORE PUSH1 0x20 PUSH1 0x0 KECCAK256 ADD PUSH1 0x0 SWAP2 POP SWAP1 POP DUP1 SLOAD PUSH2 0x250 SWAP1 PUSH2 0xAB7 JUMP JUMPDEST DUP1 PUSH1 0x1F ADD PUSH1 0x20 DUP1 SWAP2 DIV MUL PUSH1 0x20 ADD PUSH1 0x40 MLOAD SWAP1 DUP2 ADD PUSH1 0x40 MSTORE DUP1 SWAP3 SWAP2 SWAP1 DUP2 DUP2 MSTORE PUSH1 0x20 ADD DUP3 DUP1 SLOAD PUSH2 0x27C SWAP1 PUSH2 0xAB7 JUMP JUMPDEST DUP1 ISZERO PUSH2 0x2C9 JUMPI DUP1 PUSH1 0x1F LT PUSH2 0x29E JUMPI PUSH2 0x100 DUP1 DUP4 SLOAD DIV MUL DUP4 MSTORE SWAP2 PUSH1 0x20 ADD SWAP2 PUSH2 0x2C9 JUMP JUMPDEST DUP3 ADD SWAP2 SWAP1 PUSH1 0x0 MSTORE PUSH1 0x20 PUSH1 0x0 KECCAK256 SWAP1 JUMPDEST DUP2 SLOAD DUP2 MSTORE SWAP1 PUSH1 0x1 ADD SWAP1 PUSH1 0x20 ADD DUP1 DUP4 GT PUSH2 0x2AC JUMPI DUP3 SWAP1 SUB PUSH1 0x1F AND DUP3 ADD SWAP2 JUMPDEST POP POP POP POP POP DUP2 JUMP JUMPDEST PUSH2 0x2E5 DUP2 PUSH1 0x0 PUSH2 0x664 SWAP1 SWAP2 SWAP1 PUSH4 0xFFFFFFFF AND JUMP JUMPDEST PUSH1 0x0 PUSH1 0x3 PUSH1 0x0 DUP4 DUP2 MSTORE PUSH1 0x20 ADD SWAP1 DUP2 MSTORE PUSH1 0x20 ADD PUSH1 0x0 KECCAK256 SWAP1 POP PUSH1 0x0 DUP2 PUSH1 0x0 ADD DUP2 SWAP1 SSTORE POP PUSH32 0xEF34A648F121EC3B28A4C39B88C27B531D11995C99587BEB8C08F324B9102052 CALLER DUP4 PUSH1 0x40 MLOAD PUSH2 0x337 SWAP3 SWAP2 SWAP1 PUSH2 0xB38 JUMP JUMPDEST PUSH1 0x40 MLOAD DUP1 SWAP2 SUB SWAP1 LOG1 POP POP JUMP JUMPDEST PUSH1 0x60 PUSH1 0x0 JUMPDEST PUSH1 0x20 DUP2 PUSH1 0xFF AND LT DUP1 ISZERO PUSH2 0x39A JUMPI POP PUSH1 0x0 PUSH1 0xF8 SHL DUP4 DUP3 PUSH1 0xFF AND PUSH1 0x20 DUP2 LT PUSH2 0x371 JUMPI PUSH2 0x370 PUSH2 0xB61 JUMP JUMPDEST JUMPDEST BYTE PUSH1 0xF8 SHL PUSH31 0xFFFFFFFFFFFFFFFFFFFFFFFFFFFFFFFFFFFFFFFFFFFFFFFFFFFFFFFFFFFFFF NOT AND EQ ISZERO JUMPDEST ISZERO PUSH2 0x3B2 JUMPI DUP1 DUP1 PUSH2 0x3AA SWAP1 PUSH2 0xBCC JUMP JUMPDEST SWAP2 POP POP PUSH2 0x348 JUMP JUMPDEST PUSH1 0x0 DUP2 PUSH1 0xFF AND PUSH8 0xFFFFFFFFFFFFFFFF DUP2 GT ISZERO PUSH2 0x3D1 JUMPI PUSH2 0x3D0 PUSH2 0xBF5 JUMP JUMPDEST JUMPDEST PUSH1 0x40 MLOAD SWAP1 DUP1 DUP3 MSTORE DUP1 PUSH1 0x1F ADD PUSH1 0x1F NOT AND PUSH1 0x20 ADD DUP3 ADD PUSH1 0x40 MSTORE DUP1 ISZERO PUSH2 0x403 JUMPI DUP2 PUSH1 0x20 ADD PUSH1 0x1 DUP3 MUL DUP1 CALLDATASIZE DUP4 CALLDATACOPY DUP1 DUP3 ADD SWAP2 POP POP SWAP1 POP JUMPDEST POP SWAP1 POP PUSH1 0x0 SWAP2 POP JUMPDEST PUSH1 0x20 DUP3 PUSH1 0xFF AND LT DUP1 ISZERO PUSH2 0x45D JUMPI POP PUSH1 0x0 PUSH1 0xF8 SHL DUP5 DUP4 PUSH1 0xFF AND PUSH1 0x20 DUP2 LT PUSH2 0x434 JUMPI PUSH2 0x433 PUSH2 0xB61 JUMP JUMPDEST JUMPDEST BYTE PUSH1 0xF8 SHL PUSH31 0xFFFFFFFFFFFFFFFFFFFFFFFFFFFFFFFFFFFFFFFFFFFFFFFFFFFFFFFFFFFFFF NOT AND EQ ISZERO JUMPDEST ISZERO PUSH2 0x4D4 JUMPI DUP4 DUP3 PUSH1 0xFF AND PUSH1 0x20 DUP2 LT PUSH2 0x478 JUMPI PUSH2 0x477 PUSH2 0xB61 JUMP JUMPDEST JUMPDEST BYTE PUSH1 0xF8 SHL DUP2 DUP4 PUSH1 0xFF AND DUP2 MLOAD DUP2 LT PUSH2 0x492 JUMPI PUSH2 0x491 PUSH2 0xB61 JUMP JUMPDEST JUMPDEST PUSH1 0x20 ADD ADD SWAP1 PUSH31 0xFFFFFFFFFFFFFFFFFFFFFFFFFFFFFFFFFFFFFFFFFFFFFFFFFFFFFFFFFFFFFF NOT AND SWAP1 DUP2 PUSH1 0x0 BYTE SWAP1 MSTORE8 POP DUP2 DUP1 PUSH2 0x4CC SWAP1 PUSH2 0xBCC JUMP JUMPDEST SWAP3 POP POP PUSH2 0x40B JUMP JUMPDEST DUP1 SWAP3 POP POP POP SWAP2 SWAP1 POP JUMP JUMPDEST PUSH2 0x4F2 DUP2 PUSH1 0x0 PUSH2 0x74F SWAP1 SWAP2 SWAP1 PUSH4 0xFFFFFFFF AND JUMP JUMPDEST PUSH2 0x531 JUMPI PUSH1 0x40 MLOAD PUSH32 0x8C379A000000000000000000000000000000000000000000000000000000000 DUP2 MSTORE PUSH1 0x4 ADD PUSH2 0x528 SWAP1 PUSH2 0xC96 JUMP JUMPDEST PUSH1 0x40 MLOAD DUP1 SWAP2 SUB SWAP1 REVERT JUMPDEST PUSH1 0x0 PUSH1 0x3 PUSH1 0x0 DUP4 DUP2 MSTORE PUSH1 0x20 ADD SWAP1 DUP2 MSTORE PUSH1 0x20 ADD PUSH1 0x0 KECCAK256 SWAP1 POP PUSH1 0x1 DUP2 PUSH1 0x0 ADD PUSH1 0x0 DUP3 DUP3 SLOAD PUSH2 0x55D SWAP2 SWAP1 PUSH2 0xCB6 JUMP JUMPDEST SWAP3 POP POP DUP2 SWAP1 SSTORE POP PUSH32 0x9CE788E0C0EAEFEE66FFA1581A64D43DFDD98BD16B28F142077CD8F918F7A737 CALLER DUP4 PUSH1 0x40 MLOAD PUSH2 0x595 SWAP3 SWAP2 SWAP1 PUSH2 0xB38 JUMP JUMPDEST PUSH1 0x40 MLOAD DUP1 SWAP2 SUB SWAP1 LOG1 PUSH1 0x3 DUP2 PUSH1 0x0 ADD SLOAD SUB PUSH2 0x5E7 JUMPI PUSH1 0x2 PUSH2 0x5B4 DUP4 PUSH2 0x343 JUMP JUMPDEST SWAP1 DUP1 PUSH1 0x1 DUP2 SLOAD ADD DUP1 DUP3 SSTORE DUP1 SWAP2 POP POP PUSH1 0x1 SWAP1 SUB SWAP1 PUSH1 0x0 MSTORE PUSH1 0x20 PUSH1 0x0 KECCAK256 ADD PUSH1 0x0 SWAP1 SWAP2 SWAP1 SWAP2 SWAP1 SWAP2 POP SWAP1 DUP2 PUSH2 0x5E5 SWAP2 SWAP1 PUSH2 0xEA6 JUMP JUMPDEST POP JUMPDEST POP POP JUMP JUMPDEST PUSH1 0x0 PUSH2 0x601 DUP3 PUSH1 0x0 PUSH2 0x74F SWAP1 SWAP2 SWAP1 PUSH4 0xFFFFFFFF AND JUMP JUMPDEST PUSH2 0x640 JUMPI PUSH1 0x40 MLOAD PUSH32 0x8C379A000000000000000000000000000000000000000000000000000000000 DUP2 MSTORE PUSH1 0x4 ADD PUSH2 0x637 SWAP1 PUSH2 0xFEA JUMP JUMPDEST PUSH1 0x40 MLOAD DUP1 SWAP2 SUB SWAP1 REVERT JUMPDEST PUSH1 0x0 PUSH1 0x3 PUSH1 0x0 DUP5 DUP2 MSTORE PUSH1 0x20 ADD SWAP1 DUP2 MSTORE PUSH1 0x20 ADD PUSH1 0x0 KECCAK256 SWAP1 POP DUP1 PUSH1 0x0 ADD SLOAD SWAP2 POP POP SWAP2 SWAP1 POP JUMP JUMPDEST PUSH1 0x0 DUP1 SHL DUP2 SUB PUSH2 0x6A9 JUMPI PUSH1 0x40 MLOAD PUSH32 0x8C379A000000000000000000000000000000000000000000000000000000000 DUP2 MSTORE PUSH1 0x4 ADD PUSH2 0x6A0 SWAP1 PUSH2 0x107C JUMP JUMPDEST PUSH1 0x40 MLOAD DUP1 SWAP2 SUB SWAP1 REVERT JUMPDEST PUSH2 0x6B3 DUP3 DUP3 PUSH2 0x74F JUMP JUMPDEST ISZERO PUSH2 0x6F3 JUMPI PUSH1 0x40 MLOAD PUSH32 0x8C379A000000000000000000000000000000000000000000000000000000000 DUP2 MSTORE PUSH1 0x4 ADD PUSH2 0x6EA SWAP1 PUSH2 0x110E JUMP JUMPDEST PUSH1 0x40 MLOAD DUP1 SWAP2 SUB SWAP1 REVERT JUMPDEST DUP2 PUSH1 0x1 ADD DUP2 SWAP1 DUP1 PUSH1 0x1 DUP2 SLOAD ADD DUP1 DUP3 SSTORE DUP1 SWAP2 POP POP PUSH1 0x1 SWAP1 SUB SWAP1 PUSH1 0x0 MSTORE PUSH1 0x20 PUSH1 0x0 KECCAK256 ADD PUSH1 0x0 SWAP1 SWAP2 SWAP1 SWAP2 SWAP1 SWAP2 POP SSTORE PUSH1 0x1 DUP3 PUSH1 0x1 ADD DUP1 SLOAD SWAP1 POP PUSH2 0x732 SWAP2 SWAP1 PUSH2 0x112E JUMP JUMPDEST DUP3 PUSH1 0x0 ADD PUSH1 0x0 DUP4 DUP2 MSTORE PUSH1 0x20 ADD SWAP1 DUP2 MSTORE PUSH1 0x20 ADD PUSH1 0x0 KECCAK256 DUP2 SWAP1 SSTORE POP POP POP JUMP JUMPDEST PUSH1 0x0 DUP1 DUP4 PUSH1 0x1 ADD DUP1 SLOAD SWAP1 POP SUB PUSH2 0x768 JUMPI PUSH1 0x0 SWAP1 POP PUSH2 0x7A3 JUMP JUMPDEST DUP2 DUP4 PUSH1 0x1 ADD DUP5 PUSH1 0x0 ADD PUSH1 0x0 DUP6 DUP2 MSTORE PUSH1 0x20 ADD SWAP1 DUP2 MSTORE PUSH1 0x20 ADD PUSH1 0x0 KECCAK256 SLOAD DUP2 SLOAD DUP2 LT PUSH2 0x794 JUMPI PUSH2 0x793 PUSH2 0xB61 JUMP JUMPDEST JUMPDEST SWAP1 PUSH1 0x0 MSTORE PUSH1 0x20 PUSH1 0x0 KECCAK256 ADD SLOAD EQ SWAP1 POP JUMPDEST SWAP3 SWAP2 POP POP JUMP JUMPDEST PUSH1 0x0 DUP2 MLOAD SWAP1 POP SWAP2 SWAP1 POP JUMP JUMPDEST PUSH1 0x0 DUP3 DUP3 MSTORE PUSH1 0x20 DUP3 ADD SWAP1 POP SWAP3 SWAP2 POP POP JUMP JUMPDEST PUSH1 0x0 DUP2 SWAP1 POP PUSH1 0x20 DUP3 ADD SWAP1 POP SWAP2 SWAP1 POP JUMP JUMPDEST PUSH1 0x0 DUP2 MLOAD SWAP1 POP SWAP2 SWAP1 POP JUMP JUMPDEST PUSH1 0x0 DUP3 DUP3 MSTORE PUSH1 0x20 DUP3 ADD SWAP1 POP SWAP3 SWAP2 POP POP JUMP JUMPDEST PUSH1 0x0 JUMPDEST DUP4 DUP2 LT ISZERO PUSH2 0x80F JUMPI DUP1 DUP3 ADD MLOAD DUP2 DUP5 ADD MSTORE PUSH1 0x20 DUP2 ADD SWAP1 POP PUSH2 0x7F4 JUMP JUMPDEST PUSH1 0x0 DUP5 DUP5 ADD MSTORE POP POP POP POP JUMP JUMPDEST PUSH1 0x0 PUSH1 0x1F NOT PUSH1 0x1F DUP4 ADD AND SWAP1 POP SWAP2 SWAP1 POP JUMP JUMPDEST PUSH1 0x0 PUSH2 0x837 DUP3 PUSH2 0x7D5 JUMP JUMPDEST PUSH2 0x841 DUP2 DUP6 PUSH2 0x7E0 JUMP JUMPDEST SWAP4 POP PUSH2 0x851 DUP2 DUP6 PUSH1 0x20 DUP7 ADD PUSH2 0x7F1 JUMP JUMPDEST PUSH2 0x85A DUP2 PUSH2 0x81B JUMP JUMPDEST DUP5 ADD SWAP2 POP POP SWAP3 SWAP2 POP POP JUMP JUMPDEST PUSH1 0x0 PUSH2 0x871 DUP4 DUP4 PUSH2 0x82C JUMP JUMPDEST SWAP1 POP SWAP3 SWAP2 POP POP JUMP JUMPDEST PUSH1 0x0 PUSH1 0x20 DUP3 ADD SWAP1 POP SWAP2 SWAP1 POP JUMP JUMPDEST PUSH1 0x0 PUSH2 0x891 DUP3 PUSH2 0x7A9 JUMP JUMPDEST PUSH2 0x89B DUP2 DUP6 PUSH2 0x7B4 JUMP JUMPDEST SWAP4 POP DUP4 PUSH1 0x20 DUP3 MUL DUP6 ADD PUSH2 0x8AD DUP6 PUSH2 0x7C5 JUMP JUMPDEST DUP1 PUSH1 0x0 JUMPDEST DUP6 DUP2 LT ISZERO PUSH2 0x8E9 JUMPI DUP5 DUP5 SUB DUP10 MSTORE DUP2 MLOAD PUSH2 0x8CA DUP6 DUP3 PUSH2 0x865 JUMP JUMPDEST SWAP5 POP PUSH2 0x8D5 DUP4 PUSH2 0x879 JUMP JUMPDEST SWAP3 POP PUSH1 0x20 DUP11 ADD SWAP10 POP POP PUSH1 0x1 DUP2 ADD SWAP1 POP PUSH2 0x8B1 JUMP JUMPDEST POP DUP3 SWAP8 POP DUP8 SWAP6 POP POP POP POP POP POP SWAP3 SWAP2 POP POP JUMP JUMPDEST PUSH1 0x0 PUSH1 0x20 DUP3 ADD SWAP1 POP DUP2 DUP2 SUB PUSH1 0x0 DUP4 ADD MSTORE PUSH2 0x915 DUP2 DUP5 PUSH2 0x886 JUMP JUMPDEST SWAP1 POP SWAP3 SWAP2 POP POP JUMP JUMPDEST PUSH1 0x0 DUP1 REVERT JUMPDEST PUSH1 0x0 DUP2 SWAP1 POP SWAP2 SWAP1 POP JUMP JUMPDEST PUSH2 0x935 DUP2 PUSH2 0x922 JUMP JUMPDEST DUP2 EQ PUSH2 0x940 JUMPI PUSH1 0x0 DUP1 REVERT JUMPDEST POP JUMP JUMPDEST PUSH1 0x0 DUP2 CALLDATALOAD SWAP1 POP PUSH2 0x952 DUP2 PUSH2 0x92C JUMP JUMPDEST SWAP3 SWAP2 POP POP JUMP JUMPDEST PUSH1 0x0 PUSH1 0x20 DUP3 DUP5 SUB SLT ISZERO PUSH2 0x96E JUMPI PUSH2 0x96D PUSH2 0x91D JUMP JUMPDEST JUMPDEST PUSH1 0x0 PUSH2 0x97C DUP5 DUP3 DUP6 ADD PUSH2 0x943 JUMP JUMPDEST SWAP2 POP POP SWAP3 SWAP2 POP POP JUMP JUMPDEST PUSH1 0x0 DUP3 DUP3 MSTORE PUSH1 0x20 DUP3 ADD SWAP1 POP SWAP3 SWAP2 POP POP JUMP JUMPDEST PUSH1 0x0 PUSH2 0x9A1 DUP3 PUSH2 0x7D5 JUMP JUMPDEST PUSH2 0x9AB DUP2 DUP6 PUSH2 0x985 JUMP JUMPDEST SWAP4 POP PUSH2 0x9BB DUP2 DUP6 PUSH1 0x20 DUP7 ADD PUSH2 0x7F1 JUMP JUMPDEST PUSH2 0x9C4 DUP2 PUSH2 0x81B JUMP JUMPDEST DUP5 ADD SWAP2 POP POP SWAP3 SWAP2 POP POP JUMP JUMPDEST PUSH1 0x0 PUSH1 0x20 DUP3 ADD SWAP1 POP DUP2 DUP2 SUB PUSH1 0x0 DUP4 ADD MSTORE PUSH2 0x9E9 DUP2 DUP5 PUSH2 0x996 JUMP JUMPDEST SWAP1 POP SWAP3 SWAP2 POP POP JUMP JUMPDEST PUSH1 0x0 DUP2 SWAP1 POP SWAP2 SWAP1 POP JUMP JUMPDEST PUSH2 0xA04 DUP2 PUSH2 0x9F1 JUMP JUMPDEST DUP2 EQ PUSH2 0xA0F JUMPI PUSH1 0x0 DUP1 REVERT JUMPDEST POP JUMP JUMPDEST PUSH1 0x0 DUP2 CALLDATALOAD SWAP1 POP PUSH2 0xA21 DUP2 PUSH2 0x9FB JUMP JUMPDEST SWAP3 SWAP2 POP POP JUMP JUMPDEST PUSH1 0x0 PUSH1 0x20 DUP3 DUP5 SUB SLT ISZERO PUSH2 0xA3D JUMPI PUSH2 0xA3C PUSH2 0x91D JUMP JUMPDEST JUMPDEST PUSH1 0x0 PUSH2 0xA4B DUP5 DUP3 DUP6 ADD PUSH2 0xA12 JUMP JUMPDEST SWAP2 POP POP SWAP3 SWAP2 POP POP JUMP JUMPDEST PUSH1 0x0 DUP2 SWAP1 POP SWAP2 SWAP1 POP JUMP JUMPDEST PUSH2 0xA67 DUP2 PUSH2 0xA54 JUMP JUMPDEST DUP3 MSTORE POP POP JUMP JUMPDEST PUSH1 0x0 PUSH1 0x20 DUP3 ADD SWAP1 POP PUSH2 0xA82 PUSH1 0x0 DUP4 ADD DUP5 PUSH2 0xA5E JUMP JUMPDEST SWAP3 SWAP2 POP POP JUMP JUMPDEST PUSH32 0x4E487B7100000000000000000000000000000000000000000000000000000000 PUSH1 0x0 MSTORE PUSH1 0x22 PUSH1 0x4 MSTORE PUSH1 0x24 PUSH1 0x0 REVERT JUMPDEST PUSH1 0x0 PUSH1 0x2 DUP3 DIV SWAP1 POP PUSH1 0x1 DUP3 AND DUP1 PUSH2 0xACF JUMPI PUSH1 0x7F DUP3 AND SWAP2 POP JUMPDEST PUSH1 0x20 DUP3 LT DUP2 SUB PUSH2 0xAE2 JUMPI PUSH2 0xAE1 PUSH2 0xA88 JUMP JUMPDEST JUMPDEST POP SWAP2 SWAP1 POP JUMP JUMPDEST PUSH1 0x0 PUSH20 0xFFFFFFFFFFFFFFFFFFFFFFFFFFFFFFFFFFFFFFFF DUP3 AND SWAP1 POP SWAP2 SWAP1 POP JUMP JUMPDEST PUSH1 0x0 PUSH2 0xB13 DUP3 PUSH2 0xAE8 JUMP JUMPDEST SWAP1 POP SWAP2 SWAP1 POP JUMP JUMPDEST PUSH2 0xB23 DUP2 PUSH2 0xB08 JUMP JUMPDEST DUP3 MSTORE POP POP JUMP JUMPDEST PUSH2 0xB32 DUP2 PUSH2 0x9F1 JUMP JUMPDEST DUP3 MSTORE POP POP JUMP JUMPDEST PUSH1 0x0 PUSH1 0x40 DUP3 ADD SWAP1 POP PUSH2 0xB4D PUSH1 0x0 DUP4 ADD DUP6 PUSH2 0xB1A JUMP JUMPDEST PUSH2 0xB5A PUSH1 0x20 DUP4 ADD DUP5 PUSH2 0xB29 JUMP JUMPDEST SWAP4 SWAP3 POP POP POP JUMP JUMPDEST PUSH32 0x4E487B7100000000000000000000000000000000000000000000000000000000 PUSH1 0x0 MSTORE PUSH1 0x32 PUSH1 0x4 MSTORE PUSH1 0x24 PUSH1 0x0 REVERT JUMPDEST PUSH32 0x4E487B7100000000000000000000000000000000000000000000000000000000 PUSH1 0x0 MSTORE PUSH1 0x11 PUSH1 0x4 MSTORE PUSH1 0x24 PUSH1 0x0 REVERT JUMPDEST PUSH1 0x0 PUSH1 0xFF DUP3 AND SWAP1 POP SWAP2 SWAP1 POP JUMP JUMPDEST PUSH1 0x0 PUSH2 0xBD7 DUP3 PUSH2 0xBBF JUMP JUMPDEST SWAP2 POP PUSH1 0xFF DUP3 SUB PUSH2 0xBEA JUMPI PUSH2 0xBE9 PUSH2 0xB90 JUMP JUMPDEST JUMPDEST PUSH1 0x1 DUP3 ADD SWAP1 POP SWAP2 SWAP1 POP JUMP JUMPDEST PUSH32 0x4E487B7100000000000000000000000000000000000000000000000000000000 PUSH1 0x0 MSTORE PUSH1 0x41 PUSH1 0x4 MSTORE PUSH1 0x24 PUSH1 0x0 REVERT JUMPDEST PUSH32 0x43616E27742075706461746520612075736572207468617420646F65736E2774 PUSH1 0x0 DUP3 ADD MSTORE PUSH32 0x2065786973742E00000000000000000000000000000000000000000000000000 PUSH1 0x20 DUP3 ADD MSTORE POP JUMP JUMPDEST PUSH1 0x0 PUSH2 0xC80 PUSH1 0x27 DUP4 PUSH2 0x985 JUMP JUMPDEST SWAP2 POP PUSH2 0xC8B DUP3 PUSH2 0xC24 JUMP JUMPDEST PUSH1 0x40 DUP3 ADD SWAP1 POP SWAP2 SWAP1 POP JUMP JUMPDEST PUSH1 0x0 PUSH1 0x20 DUP3 ADD SWAP1 POP DUP2 DUP2 SUB PUSH1 0x0 DUP4 ADD MSTORE PUSH2 0xCAF DUP2 PUSH2 0xC73 JUMP JUMPDEST SWAP1 POP SWAP2 SWAP1 POP JUMP JUMPDEST PUSH1 0x0 PUSH2 0xCC1 DUP3 PUSH2 0xA54 JUMP JUMPDEST SWAP2 POP PUSH2 0xCCC DUP4 PUSH2 0xA54 JUMP JUMPDEST SWAP3 POP DUP3 DUP3 ADD SWAP1 POP DUP3 DUP2 SLT ISZERO PUSH1 0x0 DUP4 SLT AND DUP4 DUP3 SLT PUSH1 0x0 DUP5 SLT ISZERO AND OR ISZERO PUSH2 0xCF4 JUMPI PUSH2 0xCF3 PUSH2 0xB90 JUMP JUMPDEST JUMPDEST SWAP3 SWAP2 POP POP JUMP JUMPDEST PUSH1 0x0 DUP2 SWAP1 POP DUP2 PUSH1 0x0 MSTORE PUSH1 0x20 PUSH1 0x0 KECCAK256 SWAP1 POP SWAP2 SWAP1 POP JUMP JUMPDEST PUSH1 0x0 PUSH1 0x20 PUSH1 0x1F DUP4 ADD DIV SWAP1 POP SWAP2 SWAP1 POP JUMP JUMPDEST PUSH1 0x0 DUP3 DUP3 SHL SWAP1 POP SWAP3 SWAP2 POP POP JUMP JUMPDEST PUSH1 0x0 PUSH1 0x8 DUP4 MUL PUSH2 0xD5C PUSH32 0xFFFFFFFFFFFFFFFFFFFFFFFFFFFFFFFFFFFFFFFFFFFFFFFFFFFFFFFFFFFFFFFF DUP3 PUSH2 0xD1F JUMP JUMPDEST PUSH2 0xD66 DUP7 DUP4 PUSH2 0xD1F JUMP JUMPDEST SWAP6 POP DUP1 NOT DUP5 AND SWAP4 POP DUP1 DUP7 AND DUP5 OR SWAP3 POP POP POP SWAP4 SWAP3 POP POP POP JUMP JUMPDEST PUSH1 0x0 DUP2 SWAP1 POP SWAP2 SWAP1 POP JUMP JUMPDEST PUSH1 0x0 PUSH2 0xDA3 PUSH2 0xD9E PUSH2 0xD99 DUP5 PUSH2 0x922 JUMP JUMPDEST PUSH2 0xD7E JUMP JUMPDEST PUSH2 0x922 JUMP JUMPDEST SWAP1 POP SWAP2 SWAP1 POP JUMP JUMPDEST PUSH1 0x0 DUP2 SWAP1 POP SWAP2 SWAP1 POP JUMP JUMPDEST PUSH2 0xDBD DUP4 PUSH2 0xD88 JUMP JUMPDEST PUSH2 0xDD1 PUSH2 0xDC9 DUP3 PUSH2 0xDAA JUMP JUMPDEST DUP5 DUP5 SLOAD PUSH2 0xD2C JUMP JUMPDEST DUP3 SSTORE POP POP POP POP JUMP JUMPDEST PUSH1 0x0 SWAP1 JUMP JUMPDEST PUSH2 0xDE6 PUSH2 0xDD9 JUMP JUMPDEST PUSH2 0xDF1 DUP2 DUP5 DUP5 PUSH2 0xDB4 JUMP JUMPDEST POP POP POP JUMP JUMPDEST JUMPDEST DUP2 DUP2 LT ISZERO PUSH2 0xE15 JUMPI PUSH2 0xE0A PUSH1 0x0 DUP3 PUSH2 0xDDE JUMP JUMPDEST PUSH1 0x1 DUP2 ADD SWAP1 POP PUSH2 0xDF7 JUMP JUMPDEST POP POP JUMP JUMPDEST PUSH1 0x1F DUP3 GT ISZERO PUSH2 0xE5A JUMPI PUSH2 0xE2B DUP2 PUSH2 0xCFA JUMP JUMPDEST PUSH2 0xE34 DUP5 PUSH2 0xD0F JUMP JUMPDEST DUP2 ADD PUSH1 0x20 DUP6 LT ISZERO PUSH2 0xE43 JUMPI DUP2 SWAP1 POP JUMPDEST PUSH2 0xE57 PUSH2 0xE4F DUP6 PUSH2 0xD0F JUMP JUMPDEST DUP4 ADD DUP3 PUSH2 0xDF6 JUMP JUMPDEST POP POP JUMPDEST POP POP POP JUMP JUMPDEST PUSH1 0x0 DUP3 DUP3 SHR SWAP1 POP SWAP3 SWAP2 POP POP JUMP JUMPDEST PUSH1 0x0 PUSH2 0xE7D PUSH1 0x0 NOT DUP5 PUSH1 0x8 MUL PUSH2 0xE5F JUMP JUMPDEST NOT DUP1 DUP4 AND SWAP2 POP POP SWAP3 SWAP2 POP POP JUMP JUMPDEST PUSH1 0x0 PUSH2 0xE96 DUP4 DUP4 PUSH2 0xE6C JUMP JUMPDEST SWAP2 POP DUP3 PUSH1 0x2 MUL DUP3 OR SWAP1 POP SWAP3 SWAP2 POP POP JUMP JUMPDEST PUSH2 0xEAF DUP3 PUSH2 0x7D5 JUMP JUMPDEST PUSH8 0xFFFFFFFFFFFFFFFF DUP2 GT ISZERO PUSH2 0xEC8 JUMPI PUSH2 0xEC7 PUSH2 0xBF5 JUMP JUMPDEST JUMPDEST PUSH2 0xED2 DUP3 SLOAD PUSH2 0xAB7 JUMP JUMPDEST PUSH2 0xEDD DUP3 DUP3 DUP6 PUSH2 0xE19 JUMP JUMPDEST PUSH1 0x0 PUSH1 0x20 SWAP1 POP PUSH1 0x1F DUP4 GT PUSH1 0x1 DUP2 EQ PUSH2 0xF10 JUMPI PUSH1 0x0 DUP5 ISZERO PUSH2 0xEFE JUMPI DUP3 DUP8 ADD MLOAD SWAP1 POP JUMPDEST PUSH2 0xF08 DUP6 DUP3 PUSH2 0xE8A JUMP JUMPDEST DUP7 SSTORE POP PUSH2 0xF70 JUMP JUMPDEST PUSH1 0x1F NOT DUP5 AND PUSH2 0xF1E DUP7 PUSH2 0xCFA JUMP JUMPDEST PUSH1 0x0 JUMPDEST DUP3 DUP2 LT ISZERO PUSH2 0xF46 JUMPI DUP5 DUP10 ADD MLOAD DUP3 SSTORE PUSH1 0x1 DUP3 ADD SWAP2 POP PUSH1 0x20 DUP6 ADD SWAP5 POP PUSH1 0x20 DUP2 ADD SWAP1 POP PUSH2 0xF21 JUMP JUMPDEST DUP7 DUP4 LT ISZERO PUSH2 0xF63 JUMPI DUP5 DUP10 ADD MLOAD PUSH2 0xF5F PUSH1 0x1F DUP10 AND DUP3 PUSH2 0xE6C JUMP JUMPDEST DUP4 SSTORE POP JUMPDEST PUSH1 0x1 PUSH1 0x2 DUP9 MUL ADD DUP9 SSTORE POP POP POP JUMPDEST POP POP POP POP POP POP JUMP JUMPDEST PUSH32 0x43616E27742067657420612075736572207468617420646F65736E2774206578 PUSH1 0x0 DUP3 ADD MSTORE PUSH32 0x6973742E00000000000000000000000000000000000000000000000000000000 PUSH1 0x20 DUP3 ADD MSTORE POP JUMP JUMPDEST PUSH1 0x0 PUSH2 0xFD4 PUSH1 0x24 DUP4 PUSH2 0x985 JUMP JUMPDEST SWAP2 POP PUSH2 0xFDF DUP3 PUSH2 0xF78 JUMP JUMPDEST PUSH1 0x40 DUP3 ADD SWAP1 POP SWAP2 SWAP1 POP JUMP JUMPDEST PUSH1 0x0 PUSH1 0x20 DUP3 ADD SWAP1 POP DUP2 DUP2 SUB PUSH1 0x0 DUP4 ADD MSTORE PUSH2 0x1003 DUP2 PUSH2 0xFC7 JUMP JUMPDEST SWAP1 POP SWAP2 SWAP1 POP JUMP JUMPDEST PUSH32 0x556E6F7264657265644B65795365742831303029202D204B65792063616E6E6F PUSH1 0x0 DUP3 ADD MSTORE PUSH32 0x7420626520307830000000000000000000000000000000000000000000000000 PUSH1 0x20 DUP3 ADD MSTORE POP JUMP JUMPDEST PUSH1 0x0 PUSH2 0x1066 PUSH1 0x28 DUP4 PUSH2 0x985 JUMP JUMPDEST SWAP2 POP PUSH2 0x1071 DUP3 PUSH2 0x100A JUMP JUMPDEST PUSH1 0x40 DUP3 ADD SWAP1 POP SWAP2 SWAP1 POP JUMP JUMPDEST PUSH1 0x0 PUSH1 0x20 DUP3 ADD SWAP1 POP DUP2 DUP2 SUB PUSH1 0x0 DUP4 ADD MSTORE PUSH2 0x1095 DUP2 PUSH2 0x1059 JUMP JUMPDEST SWAP1 POP SWAP2 SWAP1 POP JUMP JUMPDEST PUSH32 0x556E6F7264657265644B65795365742831303129202D204B657920616C726561 PUSH1 0x0 DUP3 ADD MSTORE PUSH32 0x64792065786973747320696E20746865207365742E0000000000000000000000 PUSH1 0x20 DUP3 ADD MSTORE POP JUMP JUMPDEST PUSH1 0x0 PUSH2 0x10F8 PUSH1 0x35 DUP4 PUSH2 0x985 JUMP JUMPDEST SWAP2 POP PUSH2 0x1103 DUP3 PUSH2 0x109C JUMP JUMPDEST PUSH1 0x40 DUP3 ADD SWAP1 POP SWAP2 SWAP1 POP JUMP JUMPDEST PUSH1 0x0 PUSH1 0x20 DUP3 ADD SWAP1 POP DUP2 DUP2 SUB PUSH1 0x0 DUP4 ADD MSTORE PUSH2 0x1127 DUP2 PUSH2 0x10EB JUMP JUMPDEST SWAP1 POP SWAP2 SWAP1 POP JUMP JUMPDEST PUSH1 0x0 PUSH2 0x1139 DUP3 PUSH2 0x922 JUMP JUMPDEST SWAP2 POP PUSH2 0x1144 DUP4 PUSH2 0x922 JUMP JUMPDEST SWAP3 POP DUP3 DUP3 SUB SWAP1 POP DUP2 DUP2 GT ISZERO PUSH2 0x115C JUMPI PUSH2 0x115B PUSH2 0xB90 JUMP JUMPDEST JUMPDEST SWAP3 SWAP2 POP POP JUMP INVALID LOG2 PUSH5 0x6970667358 0x22 SLT KECCAK256 PUSH9 0x706FADE86F8FEE309E 0xFC 0xA8 GASPRICE PUSH31 0xD9934FE9D661BDD981FBB99746F1E8B67ED164736F6C634300081100330000 "},"methodIdentifiers":{"CautionedPersons(uint256)":"136fdc88","addCount(bytes32)":"af52d4f5","bytes32ToString(bytes32)":"9201de55","getCautionedPersons()":"00ddfc36","getCount(bytes32)":"c9d6fee9","registerUser(bytes32)":"2dc03259"}}}}}