{
  "_format": "hh-sol-artifact-1",
  "contractName": "HitchensUnorderedKeySet",
  "sourceName": "contracts/HitchensUnorderedKeySet.sol",
  "abi": [
    {
      "anonymous": false,
      "inputs": [
        {
          "indexed": false,
          "internalType": "address",
          "name": "sender",
          "type": "address"
        },
        {
          "indexed": false,
          "internalType": "string",
          "name": "action",
          "type": "string"
        },
        {
          "indexed": false,
          "internalType": "bytes32",
          "name": "key",
          "type": "bytes32"
        }
      ],
      "name": "LogUpdate",
      "type": "event"
    },
    {
      "inputs": [],
      "name": "count",
      "outputs": [
        {
          "internalType": "uint256",
          "name": "",
          "type": "uint256"
        }
      ],
      "stateMutability": "view",
      "type": "function"
    },
    {
      "inputs": [
        {
          "internalType": "bytes32",
          "name": "key",
          "type": "bytes32"
        }
      ],
      "name": "exists",
      "outputs": [
        {
          "internalType": "bool",
          "name": "",
          "type": "bool"
        }
      ],
      "stateMutability": "view",
      "type": "function"
    },
    {
      "inputs": [
        {
          "internalType": "bytes32",
          "name": "key",
          "type": "bytes32"
        }
      ],
      "name": "insert",
      "outputs": [],
      "stateMutability": "nonpayable",
      "type": "function"
    },
    {
      "inputs": [
        {
          "internalType": "uint256",
          "name": "index",
          "type": "uint256"
        }
      ],
      "name": "keyAtIndex",
      "outputs": [
        {
          "internalType": "bytes32",
          "name": "",
          "type": "bytes32"
        }
      ],
      "stateMutability": "view",
      "type": "function"
    },
    {
      "inputs": [
        {
          "internalType": "bytes32",
          "name": "key",
          "type": "bytes32"
        }
      ],
      "name": "remove",
      "outputs": [],
      "stateMutability": "nonpayable",
      "type": "function"
    }
  ],
  "bytecode": "0x608060405234801561001057600080fd5b50610a06806100206000396000f3fe608060405234801561001057600080fd5b50600436106100575760003560e01c806306661abd1461005c5780632d287e431461007a57806338a699a4146100965780638e0db0d9146100c657806395bc2673146100f6575b600080fd5b610064610112565b60405161007191906104bb565b60405180910390f35b610094600480360381019061008f9190610511565b610123565b005b6100b060048036038101906100ab9190610511565b610173565b6040516100bd9190610559565b60405180910390f35b6100e060048036038101906100db91906105a0565b610190565b6040516100ed91906105dc565b60405180910390f35b610110600480360381019061010b9190610511565b6101ad565b005b600061011e60006101fd565b905090565b61013781600061020e90919063ffffffff16565b7fa4869f7c3fa4f122d4ca6781128192666d46e2b77aad294a632bd837170912343382604051610168929190610695565b60405180910390a150565b60006101898260006102f990919063ffffffff16565b9050919050565b60006101a682600061035390919063ffffffff16565b9050919050565b6101c181600061037e90919063ffffffff16565b7fa4869f7c3fa4f122d4ca6781128192666d46e2b77aad294a632bd8371709123433826040516101f292919061071d565b60405180910390a150565b600081600101805490509050919050565b6000801b8103610253576040517f08c379a000000000000000000000000000000000000000000000000000000000815260040161024a906107cb565b60405180910390fd5b61025d82826102f9565b1561029d576040517f08c379a00000000000000000000000000000000000000000000000000000000081526004016102949061085d565b60405180910390fd5b81600101819080600181540180825580915050600190039060005260206000200160009091909190915055600182600101805490506102dc91906108ac565b826000016000838152602001908152602001600020819055505050565b600080836001018054905003610312576000905061034d565b8183600101846000016000858152602001908152602001600020548154811061033e5761033d6108e0565b5b90600052602060002001541490505b92915050565b600082600101828154811061036b5761036a6108e0565b5b9060005260206000200154905092915050565b61038882826102f9565b6103c7576040517f08c379a00000000000000000000000000000000000000000000000000000000081526004016103be90610981565b60405180910390fd5b60008260010160016103d8856101fd565b6103e291906108ac565b815481106103f3576103f26108e0565b5b90600052602060002001549050600083600001600084815260200190815260200160002054905080846000016000848152602001908152602001600020819055508184600101828154811061044b5761044a6108e0565b5b90600052602060002001819055508360000160008481526020019081526020016000206000905583600101805480610486576104856109a1565b5b6001900381819060005260206000200160009055905550505050565b6000819050919050565b6104b5816104a2565b82525050565b60006020820190506104d060008301846104ac565b92915050565b600080fd5b6000819050919050565b6104ee816104db565b81146104f957600080fd5b50565b60008135905061050b816104e5565b92915050565b600060208284031215610527576105266104d6565b5b6000610535848285016104fc565b91505092915050565b60008115159050919050565b6105538161053e565b82525050565b600060208201905061056e600083018461054a565b92915050565b61057d816104a2565b811461058857600080fd5b50565b60008135905061059a81610574565b92915050565b6000602082840312156105b6576105b56104d6565b5b60006105c48482850161058b565b91505092915050565b6105d6816104db565b82525050565b60006020820190506105f160008301846105cd565b92915050565b600073ffffffffffffffffffffffffffffffffffffffff82169050919050565b6000610622826105f7565b9050919050565b61063281610617565b82525050565b600082825260208201905092915050565b7f696e736572740000000000000000000000000000000000000000000000000000600082015250565b600061067f600683610638565b915061068a82610649565b602082019050919050565b60006060820190506106aa6000830185610629565b81810360208301526106bb81610672565b90506106ca60408301846105cd565b9392505050565b7f72656d6f76650000000000000000000000000000000000000000000000000000600082015250565b6000610707600683610638565b9150610712826106d1565b602082019050919050565b60006060820190506107326000830185610629565b8181036020830152610743816106fa565b905061075260408301846105cd565b9392505050565b7f556e6f7264657265644b65795365742831303029202d204b65792063616e6e6f60008201527f7420626520307830000000000000000000000000000000000000000000000000602082015250565b60006107b5602883610638565b91506107c082610759565b604082019050919050565b600060208201905081810360008301526107e4816107a8565b9050919050565b7f556e6f7264657265644b65795365742831303129202d204b657920616c72656160008201527f64792065786973747320696e20746865207365742e0000000000000000000000602082015250565b6000610847603583610638565b9150610852826107eb565b604082019050919050565b600060208201905081810360008301526108768161083a565b9050919050565b7f4e487b7100000000000000000000000000000000000000000000000000000000600052601160045260246000fd5b60006108b7826104a2565b91506108c2836104a2565b92508282039050818111156108da576108d961087d565b5b92915050565b7f4e487b7100000000000000000000000000000000000000000000000000000000600052603260045260246000fd5b7f556e6f7264657265644b65795365742831303229202d204b657920646f65732060008201527f6e6f7420657869737420696e20746865207365742e0000000000000000000000602082015250565b600061096b603583610638565b91506109768261090f565b604082019050919050565b6000602082019050818103600083015261099a8161095e565b9050919050565b7f4e487b7100000000000000000000000000000000000000000000000000000000600052603160045260246000fdfea2646970667358221220a9fcdc346c0a0c2d235b17e92f76c13631e4a02ee11e2c69a7ee9ae990d84b6664736f6c63430008110033",
  "linkReferences": {},
  "deployedLinkReferences": {}
}